:100000000C9428020C9450020C9450020C94500250
:100010000C9450020C9450020C9450020C94500218
:100020000C9450020C9450020C9450020C94500208
:100030000C9450020C9450020C9450020C945002F8
:100040000C94890A0C9450020C9450020C945002A7
:100050000C9450020C9450020C9450020C945002D8
:100060000C9450020C9450024128D441CF83008359
:100070003041ED846403128141E88385017941CBED
:1000800085392C00340241F7812041EA8200004189
:10009000C0812641C1811141C582353E41C781BE23
:1000A00041B182001B41F281084126810141E08F6C
:1000B0001F1A180A0F064587320A07020705004172
:1000C000E18F0025270510093A784D05180D383ABB
:1000D0001F41B6840A82270041B78107413A815502
:1000E000413681E8412A82000082013F412B820093
:1000F000008200EF4111FCFC4129D4FFFF00000009
:10010000000000000030787830300030006C6C6CFB
:1001100000000000006C6CFE6CFE6C6C00307CC05B
:10012000780CF8300000C6CC183066C600386C3841
:1001300076DCCC76006060C0000000000018306003
:100140006060301800603018181830600000663C9D
:10015000FF3C660000003030FC3030000000000042
:100160000000703060000000FC0000000000000093
:100170000000303000060C183060C0800078CCDC05
:10018000FCECCC780030F030303030FC0078CC0C17
:100190003860CCFC0078CC0C380CCC78001C3C6C63
:1001A000CCFE0C0C00FCC0F80C0CCC78003860C005
:1001B000F8CCCC7800FCCC0C183060600078CCCC4B
:1001C00078CCCC780078CCCC7C0C18700000003057
:1001D0003000303000000030300070306018306087
:1001E000C0603018000000FC00FC00000060301807
:1001F0000C1830600078CC0C18300030007CC6DE63
:10020000DEDEC078003078CCCCFCCCCC00FC66665E
:100210007C6666FC003C66C0C0C0663C00FC6C6648
:1002200066666CFC00FE6268786862FE00FE6268CA
:10023000786860F0003C66C0C0CE663E00CCCCCC96
:10024000FCCCCCCC0078303030303078001E0C0C38
:100250000CCCCC7800E6666C786C66E600F06060EA
:10026000606266FE00C6EEFED6C6C6C600C6E6F6EC
:10027000DECEC6C600386CC6C6C66C3800FC6666E4
:100280007C6060F00078CCCCCCDC781C00FC66662E
:100290007C786CE60078CCE0381CCC7800FCB4307C
:1002A0003030307800CCCCCCCCCCCCFC00CCCCCC1E
:1002B000CCCC783000C6C6C6D6FEEEC600C6C66C2C
:1002C000386CC6C600CCCCCC7830307800FECC98E8
:1002D0003062C6FE007860606060607800C06030A8
:1002E000180C060200781818181818780010386CC6
:1002F000C60000000000000000000000FF303018C1
:1003000000000000000000780C7CCC7600E0607CEF
:10031000666666BC00000078CCC0CC78001C0C0C73
:100320007CCCCC7600000078CCFCC07800386C60C7
:10033000F06060F000000076CCCC7C0CF8E0606CE3
:10034000766666E60030007030303078001800784D
:10035000181818D870E060666C786CE60070303061
:1003600030303078000000ECFED6C6C6000000F841
:10037000CCCCCCCC00000078CCCCCC78000000DC1D
:1003800066667C60F0000076CCCC7C0C1E0000D849
:100390006C6C60F00000007CC0780CF80010307CC1
:1003A00030303418000000CCCCCCCC76000000CC2F
:1003B000CCCC7830000000C6C6D6FE6C000000C66B
:1003C0006C386CC6000000CCCCCC7C0CF80000FC77
:1003D000983064FC001C3030E030301C00181818D5
:1003E0000018181800E030301C3030E00076DC00D7
:1003F000000000000010386CC6C6C6FE00000000F9
:1004000000240027002A0000000000250028002BFF
:1004100000040404040404040402020202020203AD
:1004200003030303030102040810204080010204B7
:10043000081020010204081020000000080002013A
:100440000000030407000000000000000000D30AC1
:1004500011241FBECFEFD8E0DEBFCDBF11E0A0E07A
:10046000B1E0E0E5FAE102C005900D92AA37B107CC
:10047000D9F721E0AAE7B1E001C01D92A53CB2077F
:10048000E1F712E0C8E2D2E004C02197FE010E9429
:100490000C0DC732D107C9F70E94D70A0C94260D5C
:1004A0000C940000CF92DF92EF92FF920F931F9374
:1004B000CF93DF936C017A018B01C0E0D0E0CE15C1
:1004C000DF0589F0D8016D918D01D601ED91FC9188
:1004D0000190F081E02DC6010995892B11F47E0170
:1004E00002C02196ECCFC701DF91CF911F910F91F0
:1004F000FF90EF90DF90CF90089590E0FC01E75CD3
:10050000FB4F3491FC01EB5DFB4F2491FC01EF5E4E
:10051000FB4FE491EE2309F43BC0332339F1333030
:1005200091F038F43130A9F0323001F584B58F7D87
:1005300012C0373091F03830A1F03430B9F48091E6
:1005400080008F7D03C0809180008F778093800032
:100550000DC084B58F7784BD09C08091B0008F77BE
:1005600003C08091B0008F7D8093B000F0E0EE0F6B
:10057000FF1FE95FFB4FA591B4918FB7F894EC9101
:10058000611103C020952E2301C02E2B2C938FBF09
:100590000895CF93DF9390E0FC01EB5DFB4F249136
:1005A000FC01EF5EFB4F8491882361F190E0880F9E
:1005B000991FFC01E350FC4FC591D491FC01E95F08
:1005C000FB4FA591B491611109C09FB7F894888140
:1005D000209582238883EC912E230BC0623061F436
:1005E0009FB7F8943881822F809583238883EC917C
:1005F0002E2B2C939FBF06C08FB7F894E8812E2B2B
:1006000028838FBFDF91CF9108953FB7F8948091F1
:10061000C1019091C201A091C301B091C40126B55E
:10062000A89B05C02F3F19F00196A11DB11D3FBF2A
:10063000BA2FA92F982F8827820F911DA11DB11DB8
:10064000BC01CD0142E0660F771F881F991F4A95B4
:10065000D1F708958F929F92AF92BF92CF92DF927F
:10066000EF92FF926B017C010E9405034B015C013C
:10067000C114D104E104F104F1F00E940503DC018E
:10068000CB0188199909AA09BB09883E9340A105A5
:10069000B10570F321E0C21AD108E108F10888EE33
:1006A000880E83E0981EA11CB11CC114D104E10482
:1006B000F10419F7DDCFFF90EF90DF90CF90BF905E
:1006C000AF909F908F9008955F9A0895FC011382D8
:1006D00012821582148280E491E09783868380EFF2
:1006E00090E0918780871786168615861486138674
:1006F0001286178A168A158A148A138A128A118A10
:10070000108A10AA11AA12AA13AA81E084AB85ABA1
:1007100017AA16AA8FEF9FEF91AF80AF17AE16AE54
:1007200015AE14AE13AE12AE87E691E091838083CE
:1007300008958EBD00000DB407FEFDCF8EB508955F
:10074000862F5F982B9A2D989CB59F7B9CBD2D9AE8
:100750009CB590649CBD0E9499035F9A0895CF93C5
:10076000DF931F92CDB7DEB7872F5F982B9A2D9816
:100770009CB59F7B9CBD2D9A9CB590649CBD698364
:100780000E9499032B9A2D989CB59F7B9CBD2D9A16
:100790009CB590649CBD6981862F0E9499035F9AE5
:1007A0000F90DF91CF910895862F5F982B982D9809
:1007B0009CB59F7B9CBD2D9A9CB590649CBD0E946E
:1007C00099035F9A08956CE20E94D4035F9808959C
:1007D000AF92BF92CF92DF92EF92FF920F931F934F
:1007E000CF93DF93EC015B017A0169016AE20E9419
:1007F000D403B501CE010E94AF03B601CE010E9421
:10080000AF036BE2CE010E94D403B701CE010E9478
:10081000AF03B801CE01DF91CF911F910F91FF90EF
:10082000EF90DF90CF90BF90AF900C94AF030F93F9
:100830001F93CF93DF93EC016930710519F06A358E
:10084000710571F48AE590E09D838C8380EF90E0E0
:100850009F838E8380E491E09987888718E434C071
:100860006231710519F0643B710571F484EB90E01D
:100870009D838C8380E491E09F838E8380EF90E062
:100880009987888718E320C06B31710521F07E7F3E
:100890006E30710571F48EE091E09D838C8380EF62
:1008A00090E09F838E8380E491E09987888718E8A1
:1008B0000BC01D821C8280E491E09F838E8380EFB9
:1008C00090E09987888718EE66E3CE010E94D403F2
:1008D000612FCE010E94A003E881F9810885198566
:1008E000015011092E813F81215031090680F78185
:1008F000E02D40E050E060E070E0CE010995DF912E
:10090000CF911F910F910895CF93DF931F92CDB791
:10091000DEB7872F2B9A2D989CB59F7B9CBD2D9A77
:100920009CB590649CBD69830E9499032B9A2D9875
:100930009CB59F7B9CBD2D9A9CB590649CBD6981A4
:10094000862F0F90DF91CF910C949903CF92EF9265
:10095000FF920F931F93CF93DF93EC01262F6A3002
:1009600081F48EAD9FAD9BAF8AAF2CA92F778CAD54
:100970009DAD38E0239F800D911D11249DAF8CAF5C
:1009800047C0862F8B7F893009F442C06AAD7BADAA
:10099000203219F461157105D9F1E881F981E8ACCB
:1009A000F9AC0EA91FA94CAD5DAD0088F189E02D11
:1009B000CCA8CE010995BC019BAF8AAF8DA9882335
:1009C00039F12CA92F77822F90E048EF4203900154
:1009D00011244E815F81420F531F46175707C4F4FD
:1009E0004EAD5FAD5BAF4AAF43E0880F991F4A95AC
:1009F000E1F74CAD5DAD840F951F9DAF8CAF488581
:100A00005985240F351F2817390714F41DAE1CAE65
:100A100081E090E0DF91CF911F910F91FF90EF90D7
:100A2000CF900895CF92EF92FF920F931F93DC0126
:100A3000ED91FC910684F785E02D09951F910F91AA
:100A4000FF90EF90CF9008952F923F924F925F9238
:100A50006F927F928F929F92AF92BF92CF92DF92CE
:100A6000EF92FF920F931F93CF93DF9300D01F92CB
:100A7000CDB7DEB79B838A83480188E028029001C6
:100A80001124D901A350B0405D01BC2DBF77CB2EFE
:100A9000EA81FB8186819781F1E0FB1708F463C04E
:100AA0006B0128E0C20ED11C8C159D050CF46EC0A4
:100AB000AA81BB811896ED91FC9119979A01285F44
:100AC0003F4FE217F3070CF461C0AA81BB81ED919F
:100AD000FC9111978A01095F1F4F9B01295F3F4FCE
:100AE0000680F781E02DCD010995AA81BB81ED91AA
:100AF000FC9111970084F185E02DCD0109958501C8
:100B0000085F1F4FF5014490FFEFAF1ABF0A98E04E
:100B1000692E712C20E8522EAA81BB81ED91FC91A7
:100B20001197852D84210284F385E02D882319F007
:100B3000B401CD0103C0B7018A819B810995569408
:100B4000B1E06B1A710841F7A016B106D9F6AA8177
:100B5000BB81ED91FC9111970484F585E02DCD01C9
:100B60000995C60176C0B8E0CB9E800111243B01F7
:100B7000600E711E861597054CF0040F151FEA8153
:100B8000FB81208531852017310714F4019661C05F
:100B9000AA81BB81ED91FC9111970150110906804A
:100BA000F781E02D930121503109CD010995AA81EA
:100BB000BB81ED91FC9111970084F185E02DCD0171
:100BC00009952501B8E04B0E511CF5012490FFEF6B
:100BD000AF1ABF0A3C2C08E010E080E8D82E8D2D1B
:100BE00082212C2DA1F0AA81BB81ED91FC9111975E
:100BF0000284F385E02DB401CD0129830995298173
:100C0000215089F7D6940150110949F710C0AA81E3
:100C1000BB81ED91FC9111970284F385E02DB70122
:100C2000CD01298309952981215089F7EBCF3A9489
:100C30003110D1CFA414B50409F0C7CFAA81BB816C
:100C4000ED91FC9111970484F585E02DCD01099576
:100C5000C3010F900F900F90DF91CF911F910F91D3
:100C6000FF90EF90DF90CF90BF90AF909F908F90CC
:100C70007F906F905F904F903F902F9008958F924C
:100C80009F92AF92BF92CF92DF92EF92FF920F931B
:100C90001F93CF93DF93EC01690158012E813F81AF
:100CA000621773071CF0B901615071098885998535
:100CB000481759071CF0AC0141505109FB01EC0DDC
:100CC000FD1DE217F3071CF06901C61AD70A9A0145
:100CD0002A0D3B1D281739071CF05C01A41AB50A20
:100CE000E881F9818A010A0D1B1D015011099B0140
:100CF0002C0D3D1D215031090680F781E02DCE01DC
:100D00000995E881F9810084F185E02DCE010995EE
:100D10009501D6010E94FD0C4B015C01E881F9812F
:100D200081149104A104B10461F00284F385E02DE3
:100D3000B701CE01099581E0881A9108A108B10890
:100D4000EDCF0484F585E02DCE01DF91CF911F9189
:100D50000F91FF90EF90DF90CF90BF90AF909F905A
:100D60008F900994EF92FF920F931F93CF93DF938D
:100D7000EC018E819F81681779075CF588859985DC
:100D80004817590734F57901E881F9810680F78120
:100D9000E02D8A019B01CE010995E881F98100844B
:100DA000F185E02DCE010995E881F9810284F38572
:100DB000E02DB701CE010995E881F9810484F5851C
:100DC000E02DCE01DF91CF911F910F91FF90EF9019
:100DD0000994DF91CF911F910F91FF90EF900895AB
:100DE0002F923F924F925F926F927F928F929F923B
:100DF000AF92BF92CF92DF92EF92FF920F931F9329
:100E0000CF93DF93CDB7DEB728970FB6F894DEBF48
:100E10000FBECDBF4C016B0158874F83590162173C
:100E20007307A1F40417150744F404271527402776
:100E3000512758874F83042715272F813885021B98
:100E4000130B0F5F1F4F21E030E015C04F81588515
:100E500040175107B9F42617370734F4A626B726EA
:100E6000CA24DB24AC24BD2495012C193D092F5F35
:100E70003F4F01E010E04F815885B601C4010E9448
:100E80003F06A0C0FC01268137816217730724F05A
:100E90006901F1E0CF1AD108F401808591854F8175
:100EA00058854817590724F0FC013197F887EF83DC
:100EB000A216B30624F05901F1E0AF1AB1080817E1
:100EC00019071CF08C010150110935016C187D08BF
:100ED00028012F813885421A530A77FE08C0719481
:100EE000619471084FEF5FEF5A83498304C081E03A
:100EF00090E09A83898357FE08C051944194510829
:100F0000EFEFFFEFFC83EB8304C021E030E03C8394
:100F10002B83A301440F551F5E834D831201220CC6
:100F2000331C97014F815885B601C4010E94B20657
:100F3000461457041CF5810106191709CA14DB046D
:100F400009F440C017FD0CC08F819885EB81FC81AE
:100F50008E0F9F1F98878F832D813E81021B130B5D
:100F600049815A81C40ED51E020D131D97014F8170
:100F70005885B601C4010E94B206E0CFAD80BE80A4
:100F8000A418B5088F81988580179107D9F0B7FC10
:100F900006C089819A81C80ED91EA218B308EF81B4
:100FA000F8852B813C81E20FF31FF887EF834D8199
:100FB0005E81A40EB51E9701AF01B601C4010E9467
:100FC000B206E0CF28960FB6F894DEBF0FBECDBFB5
:100FD000DF91CF911F910F91FF90EF90DF90CF9015
:100FE000BF90AF909F908F907F906F905F904F9049
:100FF0003F902F9008952F923F924F925F926F9261
:101000007F928F929F92AF92BF92CF92DF92EF9298
:10101000FF920F931F93CF93DF9300D000D000D0A7
:10102000CDB7DEB76C012B015A01490186EF282E9E
:1010300033243A941E821D829AE0692E712C4D81D0
:101040005E814A0D5B1D74018A019201260D371DD8
:101050003A832983C201861997099C838B83BC013B
:10106000C6010E94F006A501ED81FE814E1B5F0BBB
:101070008A0129813A816B817C81C6010E94F00638
:101080002D813E81240D351D3C832B83C201ED81D2
:10109000FE818E1B9F0B9A838983A501460D571DE8
:1010A0008A01BC01C6010E94F006A5014619570934
:1010B0008A012B813C8169817A81C6010E94F006F8
:1010C0008D819E8101962D813E81220E331E280E38
:1010D000391E37FC07C031E0631A7108261837083B
:1010E000261837089E838D83681679060CF0A7CFE3
:1010F00026960FB6F894DEBF0FBECDBFDF91CF911D
:101100001F910F91FF90EF90DF90CF90BF90AF9025
:101110009F908F907F906F905F904F903F902F9017
:1011200008958F929F92AF92BF92EF92FF920F938A
:101130001F93CF93DF93EC017B01E881F981088550
:101140001985015011092E813F81215031090680F6
:10115000F781E02D40E050E060E070E00995E88123
:10116000F9810084F185E02DCE010995AE81BF8122
:10117000288539850E94FD0C4B015C0183E0B69403
:10118000A794979487948A95D1F7E881F98181147F
:101190009104A104B10409F444C00284F385E02D54
:1011A000B701CE010995E881F9810284F385E02D2C
:1011B000B701CE010995E881F9810284F385E02D1C
:1011C000B701CE010995E881F9810284F385E02D0C
:1011D000B701CE010995E881F9810284F385E02DFC
:1011E000B701CE010995E881F9810284F385E02DEC
:1011F000B701CE010995E881F9810284F385E02DDC
:10120000B701CE010995E881F9810284F385E02DCB
:10121000B701CE01099581E0881A9108A108B108AB
:10122000B4CF0484F585E02DCE01DF91CF911F91DD
:101230000F91FF90EF90BF90AF909F908F90099487
:101240002F923F924F925F926F927F928F929F92D6
:10125000AF92BF92CF92DF92EF92FF920F931F93C4
:10126000CF93DF93CDB7DEB7CA56D1090FB6F89446
:10127000DEBF0FBECDBF6C015B01280139014C01FF
:101280008FEF881A980AC401AB964FAFAB970E94B4
:101290006603AB964FADAB97F6014083F5018281B3
:1012A0009381F60194838383F50184819581F6010E
:1012B00096838583F50186819781F60190878783E0
:1012C000F50180859185F60192878187F5018285F8
:1012D0009385F60194878387F50184859585F601CA
:1012E00096878587F50186859785F601908B878798
:1012F000F50180899189F601928B818BF5018289B4
:101300009389F601948B838BF50184899589F60185
:10131000968B858BF50186899789F601908F878B4F
:101320008CE1F5017896D601599601900D928A9537
:10133000E1F7F50184A9F60185ABF50185A9F60170
:1013400086ABF50186A997A9F60190AF87ABF501A9
:1013500080AD91ADF60192AF81AFF50182AD93AD55
:10136000F60194AF83AFF50184AD95ADF60196AF6C
:1013700085AFF50186AD97ADF601FF969183808329
:10138000F501E05CFF4F8081F601EF5BFF4F80834A
:10139000C6018E5B9F4FA6969FAF8EAFA697FC01AE
:1013A000408251826282738283E6E0E0F1E0DE01F6
:1013B000119601900D928A95E1F76DEC74EAC401E3
:1013C0000E94910834E4E32E39E2F32E08ED10E098
:1013D00028E031E04DE050E060E370E0C4010E949D
:1013E0003F06CE0101962C014AE1C42ED12CC60144
:1013F0000D97A8969FAF8EAFA8978CE3A82EB12C1F
:10140000212C312CF6013C97AA96FFAFEEAFAA979C
:1014100035019CE0691A7108F201E20DF31D80812B
:101420008230F1F088F4813009F040C02DECE22EDA
:1014300024EAF22E08E110E028E130E0A8964EAD53
:101440005FADA897B3011BC08330E9F0843071F51C
:1014500020EE37E0A601B501C4010E94FB0726C0BB
:101460009DE6E92E9BEAF92E06E110E026E130E048
:10147000AA964EAD5FADAA97B5016B507109C40134
:101480000E943F0613C020E038EFA601B501C40159
:101490000E94FB07A696EEADFFADA6977182608213
:1014A000A8968EAD9FADA897938382839FEF291A4C
:1014B000390AE8E1AE0EB11CF4E4AF16F1E0BF0664
:1014C00009F0A6CF8BE0480E511C98E1C90ED11C43
:1014D000E2EFCE16D10409F08ACFC659DF4F0FB61E
:1014E000F894DEBF0FBECDBFDF91CF911F910F915A
:1014F000FF90EF90DF90CF90BF90AF909F908F9034
:101500007F906F905F904F903F902F9008950E9432
:10151000120D1F920F920FB60F9211242F933F932B
:101520008F939F93AF93BF938091BD019091BE0124
:10153000A091BF01B091C0013091BC0123E0230F05
:101540002D3720F40196A11DB11D05C026E8230FFB
:101550000296A11DB11D2093BC018093BD01909303
:10156000BE01A093BF01B093C0018091C1019091D1
:10157000C201A091C301B091C4010196A11DB11D8A
:101580008093C1019093C201A093C301B093C401A1
:10159000BF91AF919F918F913F912F910F900FBE6F
:1015A0000F901F9018958BE791E00C946603CF92F3
:1015B000DF92EF92FF920F931F93CF93DF93CDB7FC
:1015C000DEB7C758D1090FB6F894DEBF0FBECDBF46
:1015D000789484B5826084BD84B5816084BD85B50E
:1015E000826085BD85B5816085BD80916E0081601A
:1015F00080936E00109281008091810082608093C0
:1016000081008091810081608093810080918000C1
:101610008160809380008091B10084608093B100EC
:101620008091B00081608093B00080917A008460E6
:1016300080937A0080917A00826080937A00809112
:101640007A00816080937A0080917A00806880932C
:101650007A001092C10061E088E00E94C9022898D7
:1016600061E089E00E94C90261E087E00E94C9024E
:1016700061E08DE00E94C90261E08BE00E94C90236
:1016800060E08CE00E94C90229985F9A61E086E0E0
:101690000E94C9025E9A1092BB018CB5837F8CBDFB
:1016A0008CB58F7D8CBD1FB7F89480917A01811124
:1016B00027C0EBE1F4E08491EFE2F4E09491E82FAD
:1016C000F0E0EE0FFF1FE350FC4FA591B491EC91B9
:1016D000E92321F461E08AE00E947D0261E08AE072
:1016E0000E94C9028CB580618CBD8CB580648CBDB4
:1016F00061E08DE00E94C90261E08BE00E94C902B6
:1017000080917A018F5F80937A011FBF8CB58C7FA7
:1017100081608CBD8DB581608DBD5F9A289862E334
:1017200070E080E090E00E942A03289A68E770E069
:1017300080E090E00E942A03E8E6F0E07F018FEF6E
:10174000E81AF80A64916F3FB1F1862F807C8038E7
:10175000B9F0803C49F1803411F0F701EFCF162F3A
:101760001F736F01012FFFEFCF1ADF0A0023C9F0AB
:10177000F60164918BE791E00E94D4030150F3CF0E
:10178000162F1F736F01012FFFEFCF1ADF0A0023FF
:1017900041F0F60164918BE791E00E94A0030150B3
:1017A000F3CFE10EF11CD9CF6F7370E080E090E0D1
:1017B0000E942A03D2CF60E070E08BE791E00E94A4
:1017C00091088CB58C7F8CBD8DB58E7F8DBD61E011
:1017D00089E00E94C902E2E4F4E0E491E33019F107
:1017E00050F4E130D1F0E230E1F584B5806284BD9F
:1017F0008FE788BD3AC0E73011F1E83049F1E430B5
:1018000081F5809180008062809380008FE790E076
:1018100090938B0080938A0028C084B5806884BD33
:101820008FE787BD22C08091800080688093800010
:101830008FE790E0909389008093880016C0809194
:10184000B00080688093B0008FE78093B3000DC034
:101850008091B00080628093B0008FE78093B400E5
:1018600004C060E089E00E947D0280917D0190913A
:101870007E012B969FAF8EAF2B9780917F01909129
:1018800080012D969FAF8EAF2D9780918101909111
:1018900082012F969FAF8EAF2F97809183019091F9
:1018A000840161969FAF8EAF619780918501909181
:1018B000860163969FAF8EAF639780918701909169
:1018C000880165969FAF8EAF659780918901909151
:1018D0008A0167969FAF8EAF679780918B01909139
:1018E0008C0169969FAF8EAF699780918D01909121
:1018F0008E016B969FAF8EAF6B9780918F01909109
:1019000090016D969FAF8EAF6D97809191019091F0
:1019100092016F969FAF8EAF6F978CE1E3E9F1E094
:10192000A7E4B0E0AC0FBD1F589601900D928A95C8
:10193000E1F78091AF01EC968FAFEC978091B00109
:10194000ED968FAFED978091B1019091B201EF9636
:101950009FAF8EAFEF978091B3019091B401C158C2
:10196000DF4F99838883CF57D0408091B501909104
:10197000B601CF57DF4F99838883C158D0408091FB
:10198000B7019091B801CD57DF4F99838883C35831
:10199000D0408091B9019091BA01CB57DF4F998324
:1019A0008883C558D04087E691E029969FAF8EAFD7
:1019B00029978091BB01C957DF4F8883C758D04012
:1019C00000E010E0980141E0BE01695B7F4FCE016D
:1019D00001960E94200980E090E0C957DF4F0FB6C2
:1019E000F894DEBF0FBECDBFDF91CF911F910F9155
:1019F000FF90EF90DF90CF9008950E94170D332352
:101A000012F48A1B9B0B0C94070D0E94170DB7FF55
:101A10000895821B930B0895EE0FFF1F0590F4911C
:101A2000E02D099481E090E0F8940C94260DA29F9B
:101A3000B001B39FC001A39F700D811D1124911DA2
:101A4000B29F700D811D1124911D0895F894FFCF50
:101A5000030002020000000000000000010201007B
:101A60000100010001000200000000000000000071
:101A70000000010001000100010001000000000061
:101A80000002000000000000010001000100010050
:101A90000100000000000000000002000200010040
:101AA0000100010001000100000000000000000032
:101AB00002000400000000A60452021704E803E339
:0A1AC00003840464032405120500EA
:00000001FF
