:100000000C94B5010C94DD010C94DD010C94DD0120
:100010000C94DD010C94DD010C94DD010C94DD01E8
:100020000C94DD010C94DD010C94DD010C94DD01D8
:100030000C94DD010C94DD010C94DD010C94DD01C8
:100040000C94860B0C94DD010C94540B0C942E0B29
:100050000C94DD010C94DD010C94DD010C94DD01A8
:100060000C94E5050C94DD01000000000000000088
:1000700030787830300030006C6C6C00000000008C
:100080006C6CFE6CFE6C6C00307CC0780CF8300040
:1000900000C6CC183066C600386C3876DCCC7600EA
:1000A0006060C00000000000183060606030180020
:1000B000603018181830600000663CFF3C66000095
:1000C000003030FC30300000000000000070306074
:1000D000000000FC000000000000000000303000C4
:1000E000060C183060C0800078CCDCFCECCC7800CA
:1000F00030F030303030FC0078CC0C3860CCFC0074
:1001000078CC0C380CCC78001C3C6CCCFE0C0C0071
:10011000FCC0F80C0CCC78003860C0F8CCCC78006F
:10012000FCCC0C183060600078CCCC78CCCC78005B
:1001300078CCCC7C0C1870000000303000303000DF
:100140000000303000703060183060C0603018003F
:100150000000FC00FC0000006030180C183060004B
:1001600078CC0C18300030007CC6DEDEDEC07800B3
:100170003078CCCCFCCCCC00FC66667C6666FC009F
:100180003C66C0C0C0663C00FC6C6666666CFC00E9
:10019000FE6268786862FE00FE6268786860F0005F
:1001A0003C66C0C0CE663E00CCCCCCFCCCCCCC00F7
:1001B00078303030303078001E0C0C0CCCCC78000D
:1001C000E6666C786C66E600F06060606266FE0071
:1001D000C6EEFED6C6C6C600C6E6F6DECEC6C6006B
:1001E000386CC6C6C66C3800FC66667C6060F00081
:1001F00078CCCCCCDC781C00FC66667C786CE600A5
:1002000078CCE0381CCC7800FCB43030303078004A
:10021000CCCCCCCCCCCCFC00CCCCCCCCCC78300076
:10022000C6C6C6D6FEEEC600C6C66C386CC6C600CC
:10023000CCCCCC7830307800FECC983062C6FE0052
:100240007860606060607800C06030180C06020062
:10025000781818181818780010386CC600000000BC
:1002600000000000000000FF303018000000000017
:100270000000780C7CCC7600E0607C666666BC0092
:10028000000078CCC0CC78001C0C0C7CCCCC760068
:10029000000078CCFCC07800386C60F06060F00042
:1002A000000076CCCC7C0CF8E0606C766666E600EC
:1002B0003000703030307800180078181818D87076
:1002C000E060666C786CE60070303030303078007A
:1002D0000000ECFED6C6C6000000F8CCCCCCCC00AA
:1002E000000078CCCCCC78000000DC66667C60F046
:1002F000000076CCCC7C0C1E0000D86C6C60F0004A
:1003000000007CC0780CF80010307C3030341800CD
:100310000000CCCCCCCC76000000CCCCCC7830002B
:100320000000C6C6D6FE6C000000C66C386CC60065
:100330000000CCCCCC7C0CF80000FC983064FC00B5
:100340001C3030E030301C00181818001818180045
:10035000E030301C3030E00076DC000000000000AF
:1003600010386CC6C6C6FE00301011241FBECFEF79
:10037000D8E0DEBFCDBF11E0A0E0B1E0E2E5F1E200
:1003800002C005900D92AC36B107D9F723E0ACE678
:10039000B1E001C01D92A03FB207E1F711E0C5EB4B
:1003A000D1E004C02197FE010E948D10C43BD1070B
:1003B000C9F70E94E30D0C94A7100C9400005F9AFB
:1003C00008958EBD00000DB407FEFDCF8EB50895D3
:1003D000CF93DF931F92CDB7DEB7872F5F982B9A0D
:1003E0002D989CB59F7B9CBD2D9A9CB590649CBD1F
:1003F00069830E94E1012B9A2D989CB59F7B9CBD3F
:100400002D9A9CB590649CBD6981862F0E94E10164
:100410005F9A0F90DF91CF910895862F5F982B9868
:100420002D989CB59F7B9CBD2D9A9CB590649CBDDE
:100430000E94E1015F9A08956CE20E940D025F98AC
:100440000895AF92BF92CF92DF92EF92FF920F93F7
:100450001F93CF93DF93EC015B017A0169016AE29C
:100460000E940D02B501CE010E94E801B601CE0145
:100470000E94E8016BE2CE010E940D02B701CE019D
:100480000E94E801B801CE01DF91CF911F910F9139
:10049000FF90EF90DF90CF90BF90AF900C94E80169
:1004A000CF93DF931F92CDB7DEB7872F2B9A2D986E
:1004B0009CB59F7B9CBD2D9A9CB590649CBD698327
:1004C0000E94E1012B9A2D989CB59F7B9CBD2D9A93
:1004D0009CB590649CBD6981862F0F90DF91CF9170
:1004E0000C94E1010F931F93CF93DF93EC016930DC
:1004F000710519F06A35710571F48AE590E09D8304
:100500008C8380EF90E09F838E8380E491E09987D5
:10051000888718E434C06231710519F0643B7105B5
:1005200071F484EB90E09D838C8380E491E09F8361
:100530008E8380EF90E09987888718E320C06B3125
:10054000710521F07E7F6E30710571F48EE091E0CF
:100550009D838C8380EF90E09F838E8380E491E085
:100560009987888718E80BC01D821C8280E491E07F
:100570009F838E8380EF90E09987888718EE66E3EB
:10058000CE010E940D025F982B9A2D988CB58F7B1F
:100590008CBD2D9A8CB580648CBD812F0E94E101A9
:1005A0005F9AE881F98108851985015011092E812A
:1005B0003F81215031090680F781E02D40E050E075
:1005C00060E070E0CE010995DF91CF911F910F910E
:1005D0000895CF92EF92FF920F931F93CF93DF93E3
:1005E000EC01262F6A3081F48EAD9FAD9BAF8AAFB0
:1005F0002CA92F778CAD9DAD38E0239F800D911DE8
:1006000011249DAF8CAF47C0862F8B7F893009F4B2
:1006100042C06AAD7BAD203219F461157105D9F184
:10062000E881F981E8ACF9AC0EA91FA94CAD5DAD2C
:100630000088F189E02DCCA8CE010995BC019BAFC3
:100640008AAF8DA9882339F12CA92F77822F90E0CA
:1006500048EF4203900111244E815F81420F531FE6
:1006600046175707C4F44EAD5FAD5BAF4AAF43E0EA
:10067000880F991F4A95E1F74CAD5DAD840F951F2A
:100680009DAF8CAF48855985240F351F2817390732
:1006900014F41DAE1CAE81E090E0DF91CF911F916C
:1006A0000F91FF90EF90CF900895CF92EF92FF922D
:1006B0000F931F93DC01ED91FC910684F785E02DEB
:1006C00009951F910F91FF90EF90CF9008952F9271
:1006D0003F924F925F926F927F928F929F92AF92D2
:1006E000BF92CF92DF92EF92FF920F931F93CF931F
:1006F000DF9300D01F92CDB7DEB79B838A8348017A
:1007000088E0280290011124D901A859B0405D0168
:10071000BC2DBF77CB2EEA81FB8186819781F1E0EA
:10072000FB1708F463C06B0128E0C20ED11C8C15C6
:100730009D050CF46EC0AA81BB811896ED91FC91C9
:1007400019979A01285F3F4FE217F3070CF461C035
:10075000AA81BB81ED91FC9111978A01095F1F4F1E
:100760009B01295F3F4F0680F781E02DCD01099560
:10077000AA81BB81ED91FC9111970084F185E02D58
:10078000CD0109958501085F1F4FF5014490FFEFEA
:10079000AF1ABF0A98E0692E712C20E8522EAA8168
:1007A000BB81ED91FC911197852D84210284F38505
:1007B000E02D882319F0B401CD0103C0B7018A816F
:1007C0009B8109955694B1E06B1A710841F7A01608
:1007D000B106D9F6AA81BB81ED91FC9111970484F1
:1007E000F585E02DCD010995C60176C0B8E0CB9E18
:1007F000800111243B01600E711E861597054CF097
:10080000040F151FEA81FB812085318520173107F0
:1008100014F4019661C0AA81BB81ED91FC911197FE
:10082000015011090680F781E02D93012150310913
:10083000CD010995AA81BB81ED91FC9111970084AE
:10084000F185E02DCD0109952501B8E04B0E511C35
:10085000F5012490FFEFAF1ABF0A3C2C08E010E02E
:1008600080E8D82E8D2D82212C2DA1F0AA81BB816C
:10087000ED91FC9111970284F385E02DB401CD0137
:10088000298309952981215089F7D69401501109AE
:1008900049F710C0AA81BB81ED91FC9111970284A8
:1008A000F385E02DB701CD012983099529812150D8
:1008B00089F7EBCF3A943110D1CFA414B50409F0E5
:1008C000C7CFAA81BB81ED91FC9111970484F58576
:1008D000E02DCD010995C3010F900F900F90DF918E
:1008E000CF911F910F91FF90EF90DF90CF90BF902D
:1008F000AF909F908F907F906F905F904F903F90C0
:100900002F90089585ED8093BC008091BC0084FDFC
:10091000FCCF10920F0208954091A201262F30E0E3
:10092000240F311D21323105DCF420910F022430D7
:10093000C9F4FC0180E090E0861758F43091A201E0
:100940002191DC01A058BE4FA30FB11D2C9301963D
:10095000F3CF8091A201680F6093A20180E0089517
:1009600081E0089582E008950895E091C8018091A2
:10097000C701E81730F4F0E0E753FE4F808190E0C4
:1009800008958FEF9FEF08959091C8018091C7015E
:10099000981750F4E92FF0E0E753FE4F208130E044
:1009A0009F5F9093C80102C02FEF3FEFC9010895E8
:1009B0008091C70190E02091C801821B91090895A0
:1009C000CF92DF92EF92FF920F931F93CF93DF931B
:1009D0007C01262F972F8A0180911002882391F0A5
:1009E000C62FD72F6E01C40ED51ECC15DD0571F0B4
:1009F0006991D701ED91FC910190F081E02DC70143
:100A00000995F3CF642F822F0E948C04C801DF91D7
:100A1000CF911F910F91FF90EF90DF90CF900895AD
:100A2000CF93DF931F92CDB7DEB769832091100279
:100A30002223D1F020913302203240F021E030E037
:100A4000FC013383228380E090E015C08091110285
:100A5000E82FF0E0EE5EFD4F998190838F5F8093E9
:100A600011028093330205C061E0CE0101960E941D
:100A70008C0481E090E00F90DF91CF910895FC010C
:100A8000138212821582148280E491E09783868318
:100A900080EF90E0918780871786168615861486EA
:100AA00013861286178A168A158A148A138A128A5E
:100AB000118A108A10AA11AA12AA13AA81E084AB83
:100AC00085AB17AA16AA8FEF9FEF91AF80AF17AE35
:100AD00016AE15AE14AE13AE12AE84E091E0918363
:100AE000808308958F929F92AF92BF92CF92DF92B0
:100AF000EF92FF920F931F93CF93DF93EC01690165
:100B000058012E813F81621773071CF0B9016150B3
:100B1000710988859985481759071CF0AC01415027
:100B20005109FB01EC0DFD1DE217F3071CF06901F3
:100B3000C61AD70A9A012A0D3B1D281739071CF03F
:100B40005C01A41AB50AE881F9818A010A0D1B1D0E
:100B5000015011099B012C0D3D1D215031090680CA
:100B6000F781E02DCE010995E881F9810084F185B6
:100B7000E02DCE0109959501D6010E947E104B0112
:100B80005C01E881F98181149104A104B10461F050
:100B90000284F385E02DB701CE01099581E0881A22
:100BA0009108A108B108EDCF0484F585E02DCE01B0
:100BB000DF91CF911F910F91FF90EF90DF90CF9039
:100BC000BF90AF909F908F9009941F920F920FB695
:100BD0000F9211242F933F934F935F936F937F93C3
:100BE0008F939F93AF93BF93EF93FF938091B9003F
:100BF000887F803609F49CC068F5883209F45BC0B0
:100C000090F4803109F454C038F4882309F4F6C014
:100C1000883009F44DC0F6C0883109F44CC08032E8
:100C200009F45DC0EFC0803409F468C048F4803333
:100C300009F455C0883309F0E5C080930D02D8C08F
:100C4000803509F44FC0883509F45DC0883409F057
:100C5000D9C0D6C0883909F4C7C0A8F4883709F4C8
:100C600067C038F4883609F463C0803709F460C07F
:100C7000C9C0883809F4B8C0803909F45FC0803829
:100C800009F0C0C05BC0803B09F486C038F4803AEC
:100C900009F466C0883A09F47FC0B4C0803C09F406
:100CA000A7C0883C09F4A4C0883B09F48AC0AAC044
:100CB0008091EA0110C090910C0280910B0298176C
:100CC00070F5E0910C0281E08E0F80930C02F0E051
:100CD000E551FE4F80818093BB0085EC86C08093F8
:100CE0000D028EC0E0910C0281E08E0F80930C0209
:100CF0008091BB00F0E0E551FE4F808390910C02A3
:100D000080910B026EC0E0910C0281E08E0F809307
:100D10000C028091BB00F0E0E551FE4F8083809192
:100D20000E0281116DC081E08093E90184EA61C007
:100D300083E080930F021092C601CFCF8091C6014D
:100D4000803208F051C0E091C60181E08E0F80939F
:100D5000C6018091BB00F0E0EA55FE4F8083BDCF15
:100D600085EC8093BC0010920F028091C601803206
:100D700030F4E091C601F0E0EA55FE4F1082609138
:100D8000C60170E0E091A401F091A50186EA91E02E
:100D900009951092C60136C084E080930F0210922C
:100DA000A3011092A201E091A001F091A101099587
:100DB0008091A201811105C081E08093A20110926F
:100DC0008001E091A30181E08E0F8093A301F0E008
:100DD000E058FE4F80818093BB009091A3018091E9
:100DE000A201981708F479CF85E88093BC000AC067
:100DF00085EC8093BC0010920F0204C010920D028B
:100E00000E948204FF91EF91BF91AF919F918F91CA
:100E10007F916F915F914F913F912F910F900FBEF6
:100E20000F901F9018950F931F93CF93DF939B0103
:100E300060919B0370919C0386179707CCF5609196
:100E40009D0370919E032617370794F5EA01A901C7
:100E5000BC01E0919503F09196030680F781E02DA7
:100E600089019C0185E993E00995E0919503F09152
:100E700096030084F185E02D85E993E00995E091E2
:100E80009503F09196030284F385E02DBE0185E978
:100E900093E00995E0919503F09196030484F5851C
:100EA000E02D85E993E0DF91CF911F910F91099497
:100EB000DF91CF911F910F910895FC01918D828D4B
:100EC000981761F0828DDF01A80FB11D5D968C919E
:100ED000928D9F5F9F73928F90E008958FEF9FEFA9
:100EE0000895FC01918D828D981731F0828DE80F65
:100EF000F11D858D90E008958FEF9FEF0895FC011F
:100F0000918D228D892F90E0805C9F4F821B9109EB
:100F10008F7399270895FC01848DDF01A80FB11DFF
:100F2000A35ABF4F2C91848D90E001968F7399271F
:100F3000848FA689B7892C93A089B1898C9180640C
:100F40008C93938D848D981306C00288F389E02DCD
:100F500080818F7D80830895EF92FF920F931F937E
:100F6000CF93DF93EC0181E0888F9B8D8C8D98135C
:100F700005C0E889F989808185FD24C0F62E0B8D96
:100F800010E00F5F1F4F0F731127E02E8C8DE812BA
:100F90000CC00FB607FCFACFE889F989808185FF7C
:100FA000F5CFCE010E948B07F1CF8B8DFE01E80FAC
:100FB000F11DE35AFF4FF0820B8FEA89FB89808194
:100FC000806207C0EE89FF896083E889F9898081A2
:100FD0008064808381E090E0DF91CF911F910F9139
:100FE000FF90EF900895CF93DF93EC01888D8823D5
:100FF000C9F0EA89FB89808185FD05C0A889B98986
:101000008C9186FD0FC00FB607FCF5CF808185FF60
:10101000F2CFA889B9898C9185FFEDCFCE010E94CE
:101020008B07E7CFDF91CF910895CF92DF92EF92B8
:10103000FF920F931F93CF93DF936C017A018B0183
:10104000C0E0D0E0CE15DF0589F0D8016D918D01AB
:10105000D601ED91FC910190F081E02DC60109953A
:10106000892B11F47E0102C02196ECCFC701DF91DC
:10107000CF911F910F91FF90EF90DF90CF90089547
:101080006F927F928F929F92AF92BF92CF92EF9288
:10109000FF920F931F93CF93DF935B0149013801B8
:1010A000EA012991222389F032E0C32E73018401E1
:1010B000A501BC0185E993E00E94670320919B0391
:1010C00030919C032817390764F7DF91CF911F9166
:1010D0000F91FF90EF90CF90BF90AF909F908F9027
:1010E0007F906F9008952F923F924F925F926F92F0
:1010F0007F928F929F92AF92BF92CF92DF92EF92A8
:10110000FF920F931F93CF93DF9300D000D000D0B6
:10111000CDB7DEB76C017E836D834A01590178013A
:1011200084179507B1F4261737074CF4A626B7267F
:101130009B012A253B253E832D83A226B3268501CC
:101140004D815E81041B150B0F5F1F4F21E030E0C6
:1011500017C08D819E8182179307C1F44C155D05E0
:1011600034F48C249D24C824D9248C249D249401F7
:101170002C193D092F5F3F4F01E010E04D815E814A
:10118000B60185E993E00E94720597C020919B0308
:1011900030919C03C216D30624F0690191E0C91A6C
:1011A000D10880919D0390919E03ED81FE81E81707
:1011B000F9072CF0AC01415051095E834D83821632
:1011C000930624F0490151E0851A9108A816B90642
:1011D00024F05C01E1E0AE1AB10884010C191D098C
:1011E00035012D813E81621A730A17FF06C01195E1
:1011F000019511092FEF3FEF02C021E030E03C8361
:101200002B8377FE06C07194619471082FEF3FEF36
:1012100002C021E030E03A8329832801440C551CA8
:101220001301220C331CA7016D817E81C6010E942F
:1012300013076016710604F5A101401B510B8A01CA
:10124000C814D904D1F117FD0AC08D819E8129816E
:101250003A81820F931F9E838D83041915092B8178
:101260003C81C20ED31E020D131DA7016D817E812C
:10127000C6010E941307E4CF8201061917094D81A8
:101280005E814A155B05C9F017FD06C02B813C81C4
:10129000C20ED31E021913094D815E8129813A8144
:1012A000420F531F5E834D83040D151DA7016D81F1
:1012B0007E81C6010E941307E2CF26960FB6F894EE
:1012C000DEBF0FBECDBFDF91CF911F910F91FF9079
:1012D000EF90DF90CF90BF90AF909F908F907F90D6
:1012E0006F905F904F903F902F9008952F923F9274
:1012F0004F925F926F927F928F929F92AF92BF9226
:10130000CF92DF92EF92FF920F931F93CF93DF93D1
:10131000CDB7DEB72C970FB6F894DEBF0FBECDBFAA
:101320006C017C876B877B0102E310E022EB30E0ED
:10133000AC0167E470E085E993E00E947205160154
:101340002AE0220E311CEB84FC840EE110E02BE03D
:1013500030E0A1016CE370E085E993E00E94720542
:10136000EB84FC842BE030E0A10169EF70E085E9BB
:1013700093E00E947205C60187969E838D8326EFB7
:10138000422E55245A943AE0E32EF12C612C712C14
:1013900038862F829A878987CF80D884C618D70845
:1013A0000B851C85960146E450E0B601E6E4F0E0CA
:1013B000EE19FF09FA83E983CF010E94730886E4DE
:1013C00090E0861997099C838B830B851C855101BE
:1013D000AE18BF08950146E450E0B5010E947308BD
:1013E0000B851C85960149EF50E0B601670199EF26
:1013F000C90ED11CC6010E9473084301E9EF8E0E8D
:10140000911C0B851C85950149EF50E0B501C40185
:101410000E947308A984BA84A60CB71C0B851C858E
:10142000950149EF50E0B501C6010E9473080B8594
:101430001C85CD80DE80CE0CDF1C960149EF50E08C
:10144000B601C4010E9473080B851C85950146E412
:1014500050E0B50189819A810E9473080B851C8533
:10146000960146E450E0B6018B819C810E9473088E
:10147000C3010196460C571C480E591E57FC07C065
:10148000F1E0EF1AF1084E185F084E185F083C01B2
:10149000E816F9060CF080CF2C960FB6F894DEBF54
:1014A0000FBECDBFDF91CF911F910F91FF90EF90B5
:1014B000DF90CF90BF90AF909F908F907F906F9074
:1014C0005F904F903F902F9008950E949310382F77
:1014D0002091330290913202213208F049C080916C
:1014E0000F028111FCCF42E040930F0230930E02B5
:1014F0003FEF30930D0210920C0220930B02A2E1F9
:10150000B2E04BEE51E0FA013E2F341B321718F4D3
:101510003D913193F9CF1092EA012091EA01990FA0
:10152000922B9093EA019091E901913061F410922D
:10153000E9019091EA019093BB009091BC0093FD6A
:10154000F8CF95EC01C095EE9093BC0090910F02FE
:101550009230E1F390910D029F3F79F080910D025E
:10156000803241F080910D02803331F084E005C07B
:1015700081E003C082E001C083E01092110210926A
:10158000330210921002089580910F028111FCCF56
:1015900081E080930F0280930E029FEF90930D02E3
:1015A00010920C0295E090930B028093EA018091D7
:1015B000EA01846A8093EA018091E901813061F453
:1015C0001092E9018091EA018093BB008091BC00F8
:1015D00083FDF8CF85EC01C085EE8093BC0080913F
:1015E0000F028130E1F380910C02863018F4809173
:1015F0000C0201C086E0ABEEB1E029EC31E0F9016C
:101600009E2F921B981718F49D919193F9CF1092E9
:10161000C8018093C7010895CF93DF93009779F0B5
:10162000FC0101900020E9F73197AF01481B590BED
:10163000BC0184E392E00E941508EC0102C0C0E006
:10164000D0E042E050E065E571E084E392E00E9482
:1016500015088C0F9D1FDF91CF9108951F920F9257
:101660000FB60F9211242F933F934F935F936F9375
:101670007F938F939F93AF93BF93EF93FF9384E3F5
:1016800092E00E948B07FF91EF91BF91AF919F91E4
:101690008F917F916F915F914F913F912F910F901B
:1016A0000FBE0F901F9018951F920F920FB60F92BA
:1016B00011242F938F939F93EF93FF93E091440214
:1016C000F09145028081E0914A02F0914B0282FD47
:1016D00012C0908180914D028F5F8F7320914E02D6
:1016E000821751F0E0914D02F0E0EC5CFD4F958FD8
:1016F00080934D0201C08081FF91EF919F918F9166
:101700002F910F900FBE0F901F9018951F920F9260
:101710000FB60F9211242F933F938F939F93AF9304
:10172000BF938091910390919203A0919303B09104
:1017300094033091900323E0230F2D3720F401967A
:10174000A11DB11D05C026E8230F0296A11DB11DE4
:10175000209390038093910390939203A09393031B
:10176000B093940380918C0390918D03A0918E038C
:10177000B0918F030196A11DB11D80938C039093AE
:101780008D03A0938E03B0938F03BF91AF919F9170
:101790008F913F912F910F900FBE0F901F90189532
:1017A0006F927F928F929F92AF92BF92CF92DF9271
:1017B000EF92FF920F931F93CF93DF93CDB7DEB7D6
:1017C0002C970FB6F894DEBF0FBECDBF7C01E09121
:1017D0009503F091960300919D0310919E03015093
:1017E000110920919B0330919C03215031090680FF
:1017F000F781E02D40E050E060E070E085E993E0A3
:101800000995E0919503F09196030084F185E02D10
:1018100085E993E00995A0919B03B0919C032091E9
:101820009D0330919E030E947E104B015C0193E06A
:10183000B694A794979487949A95D1F7E0919503DD
:10184000F091960381149104A104B10409F462C0DB
:101850000284F385E02D60EE7FEF85E993E0099542
:10186000E0919503F09196030284F385E02D60EEFC
:101870007FEF85E993E00995E0919503F091960358
:101880000284F385E02D60EE7FEF85E993E0099512
:10189000E0919503F09196030284F385E02D60EECC
:1018A0007FEF85E993E00995E0919503F091960328
:1018B0000284F385E02D60EE7FEF85E993E00995E2
:1018C000E0919503F09196030284F385E02D60EE9C
:1018D0007FEF85E993E00995E0919503F0919603F8
:1018E0000284F385E02D60EE7FEF85E993E00995B2
:1018F000E0919503F09196030284F385E02D60EE6C
:101900007FEF85E993E0099521E0821A9108A1080B
:10191000B10894CF0484F585E02D85E993E009951D
:1019200001E010E0C12CD12CAA24A394B12C88246E
:10193000839482E5982E0E94C40ACE0101963C0150
:101940009091C7018091C801981749F081ED92E00C
:101950000E94C404F301819391933F01F1CF698107
:101960007A81F701718360834B815C815383428369
:101970008B859C85FC01F595E795F595E795E370DA
:10198000FF272D813E81220F331F220F331F2E2B65
:101990003F2BF70135832483FC01B4E0F595E795EF
:1019A000BA95E1F7E370FF272F813885220F331FA7
:1019B000220F331F2E2B3F2BF70137832683FC0189
:1019C000B6E0F595E795BA95E1F7E370FF2729852D
:1019D0003A85220F331F220F331F2E2B3F2BF70187
:1019E000318720879C0121703327F1E02F27F701F1
:1019F0003387228721E030E081FF02C020E030E021
:101A0000F70135872487868597859B01281B390B2D
:101A1000263031051CF0B58AA48A03C0F701158A67
:101A2000148A861B970BF70106971CF0B38AA28ACB
:101A300002C0138A128AF701808991899A01281BB2
:101A4000390B263031051CF0B78AA68A03C0F7018E
:101A5000178A168A841B950BF70106971CF0B18E26
:101A6000A08E02C0118E108E8092100290923202CF
:101A7000109211021092330260E081ED92E00E9418
:101A8000100560E081ED92E00E94100581E00E9467
:101A9000670A8FE39CE90197F1F700C00000F701A6
:101AA00086899789892B19F0F1E0CF1AD108F701BF
:101AB000808D918D892B39F0FFEFCF1ADF0A1C142E
:101AC0001D0464F00EC022E0C216D1043CF48FEF76
:101AD000C816D80631F4C12CD12C03C0CC24C39431
:101AE000D12C9FEFE1EEF4E09150E040F040E1F7BF
:101AF00000C000000C151D0509F449C0C114D10433
:101B000011F121E0C216D10409F041C06FE170E08B
:101B100086E990E00E9476090FE110E020E03CEFBA
:101B200048E551E06AEA70E089E690E00E944008EA
:101B300060E07CEF88E290E00E94760900E01CEF14
:101B40002FE130E01CC060E07CEF86E990E00E946D
:101B5000760900E01CEF2FE130E048E551E06AEA49
:101B600070E089E690E00E9440086FE170E088E252
:101B700090E00E9476090FE110E020E03CEF40E6A3
:101B800051E06CE370E080E590E00E944008F701CE
:101B900082859385892B11F48601CDCE2C960FB6C4
:101BA000F894DEBF0FBECDBFDF91CF911F910F9193
:101BB000FF90EF90DF90CF90BF90AF909F908F906D
:101BC0007F906F900895CF93DF93CDB7DEB76A977C
:101BD0000FB6F894DEBF0FBECDBF789484B5826097
:101BE00084BD84B5816084BD85B5826085BD85B5C1
:101BF000816085BD80916E00816080936E0010923F
:101C000081008091810082608093810080918100B9
:101C1000816080938100809180008160809380004A
:101C20008091B10084608093B1008091B0008160A8
:101C30008093B00080917A00846080937A008091D4
:101C40007A00826080937A0080917A00816080932C
:101C50007A0080917A00806880937A001092C100A7
:101C600080918203909181039093870380938803EE
:101C70001092890310928A0383E080938B03CE0134
:101C800001960E94D00B88248394B2E56B2E12E05B
:101C9000512E04E0402E83E0382E9BE0992E28E15F
:101CA000722E0E94C40A8E010F5F1F4F9091C701D0
:101CB0008091C801981749F081ED92E00E94C40418
:101CC000F801819391938F01F1CF89819A8190934B
:101CD0007201809371018B819C8190937401809338
:101CE00073018B859C859C013595279535952795A6
:101CF000A901437055272D813E81220F331F220FEA
:101D0000331F242B352B30937601209375019C01D2
:101D100074E0359527957A95E1F7A9014370552729
:101D20002F813885220F331F220F331F242B352B91
:101D300030937801209377019C01F6E03595279543
:101D4000FA95E1F7A9014370552729853A85220FB5
:101D5000331F220F331F242B352B30937A0120930E
:101D600079019C0121703327F1E02F2730936E0118
:101D700020936D0121E030E081FF02C020E030E0DF
:101D80003093700120936F018092100260923202B2
:101D9000109211021092330260E081ED92E00E94F5
:101DA000100560E081ED92E00E94100581E00E9444
:101DB000670A8FE39CE90197F1F700C000002091CA
:101DC00071013091720180917B0190917C01A90198
:101DD000481B590B463051051CF050927F0109C039
:101DE000821B930B06971CF080927F0102C0109219
:101DF0007F01209173013091740180917D01909158
:101E00007E01A901481B590B463051051CF0309248
:101E10007F0106C0821B930B069714F040927F014E
:101E200010917F018091870340918803242F30E037
:101E30009FEF980FF901999EE00DF11D1124E352D7
:101E4000FD4FD08091E0980F999E200D311D1124F7
:101E5000F901E352FD4F00812FEF240F989EC0013E
:101E60001124FC01E20FF11DE352FD4FC0804F5FD2
:101E7000840F911DFC01E352FD4FB0808EE391E091
:101E80000E940C0B209187032093830330918803D9
:101E90003093840380918903882319F091E0920F95
:101EA00001C0922F9093850390918A03992319F092
:101EB00041E0430F01C0432F40938603123009F4E1
:101EC00057C020F4113009F43DC0BAC0133019F0E6
:101ED0001430B9F0B5C08111B3C091110EC08FEFAD
:101EE0008C0D823008F4ACC031503093880380915F
:101EF0008B03972D981B892F0FC080918B03981B04
:101F00001EC081119DC091110AC08FEF8B0D8230D0
:101F100008F496C080918B0380938A0346C0809119
:101F20008B03482F50E0490F511D4831510531F4C2
:101F30003F5F3093880310928A0337C0980F9093C5
:101F40008A0333C091117CC081110EC08FEF8D0DBB
:101F5000823008F475C021502093870380918B0351
:101F6000E72DE81B8E2F1FC090918B03891B1BC090
:101F7000911166C0811107C00150023008F460C0A1
:101F800080918B0310C090918B03492F50E0480F34
:101F9000511D4831510531F42F5F20938703109272
:101FA000890303C0890F8093890382E591E00E9431
:101FB0000C0B609183034091840380918503861705
:101FC00008F44BC028E130E080918603841708F0C4
:101FD00041C000E310E09091870380918803C09096
:101FE0008903D12CF8E19F9FC00CD11C112450E330
:101FF000C50ED11CA0908A03B12C98E1899FA00C3A
:10200000B11C1124EDE0AE0EB11C50E0435F5F4FF8
:1020100070E0605D7F4F84E4E82E89E2F82E80E472
:1020200093E00E947205E12C98EFF92E08E110E090
:1020300028E130E0A501B60180E493E00E9472053A
:10204000FFEF21EE44E0F15020404040E1F700C0B6
:10205000000027CE08E110E0BECF20E330E0B4CF8F
:10206000CF92DF92EF92FF92E4E3F2E013821282CA
:1020700088EEC82E83E0D82EE12CF12CC482D582C4
:10208000E682F7828AE191E09183808385EC90E09B
:102090009587848784EC90E09787868780EC90E032
:1020A000918B808B81EC90E0938B828B82EC90E023
:1020B000958B848B86EC90E0978B868B118E128E9D
:1020C000138E148E85E993E00E943F05E1EDF2E066
:1020D00013821282C482D582E682F7828AE291E07C
:1020E0009183808380E493E00E943F0586ED93E036
:1020F000FF90EF90DF90CF900C94D00B0E9498103F
:10210000332312F48A1B9B0B0C9488100E949810A6
:10211000B7FF0895821B930B0895EE0FFF1F0590E4
:10212000F491E02D099481E090E0F8940C94A710CC
:10213000A29FB001B39FC001A39F700D811D112408
:10214000911DB29F700D811D1124911D0895F89469
:02215000FFCFBF
:1021520000000000E9021508720221021C0250026E
:10216200DF016703550300000000AC0715087F0775
:102172005D077107F307000000001005E004D804B2
:10218200C404B504B40400000000650A15087570A3
:1021920064617465506C6179657220706C617965F7
:1021A20072004946000D0A004F7074696F6E730029
:0C21B20053746172742047616D65000079
:00000001FF
