:100000000C9428020C9450020C9450020C94500250
:100010000C9450020C9450020C9450020C94500218
:100020000C9450020C9450020C9450020C94500208
:100030000C9450020C9450020C9450020C945002F8
:100040000C940B0D0C9450020C94170C0C94F10BA7
:100050000C9450020C9450020C9450020C945002D8
:100060000C9403060C9450024128D441CF830083A2
:100070003041ED846403128141E88385017941CBED
:1000800085392C00340241F7812041EA8200004189
:10009000C0812641C1811141C582353E41C781BE23
:1000A00041B182001B41F281084126810141E08F6C
:1000B0001F1A180A0F064587320A07020705004172
:1000C000E18F0025270510093A784D05180D383ABB
:1000D0001F41B6840A82270041B78107413A815502
:1000E000413681E8412A82000082013F412B820093
:1000F000008200EF4111FCFC4129D4FFFF00000009
:10010000000000000030787830300030006C6C6CFB
:1001100000000000006C6CFE6CFE6C6C00307CC05B
:10012000780CF8300000C6CC183066C600386C3841
:1001300076DCCC76006060C0000000000018306003
:100140006060301800603018181830600000663C9D
:10015000FF3C660000003030FC3030000000000042
:100160000000703060000000FC0000000000000093
:100170000000303000060C183060C0800078CCDC05
:10018000FCECCC780030F030303030FC0078CC0C17
:100190003860CCFC0078CC0C380CCC78001C3C6C63
:1001A000CCFE0C0C00FCC0F80C0CCC78003860C005
:1001B000F8CCCC7800FCCC0C183060600078CCCC4B
:1001C00078CCCC780078CCCC7C0C18700000003057
:1001D0003000303000000030300070306018306087
:1001E000C0603018000000FC00FC00000060301807
:1001F0000C1830600078CC0C18300030007CC6DE63
:10020000DEDEC078003078CCCCFCCCCC00FC66665E
:100210007C6666FC003C66C0C0C0663C00FC6C6648
:1002200066666CFC00FE6268786862FE00FE6268CA
:10023000786860F0003C66C0C0CE663E00CCCCCC96
:10024000FCCCCCCC0078303030303078001E0C0C38
:100250000CCCCC7800E6666C786C66E600F06060EA
:10026000606266FE00C6EEFED6C6C6C600C6E6F6EC
:10027000DECEC6C600386CC6C6C66C3800FC6666E4
:100280007C6060F00078CCCCCCDC781C00FC66662E
:100290007C786CE60078CCE0381CCC7800FCB4307C
:1002A0003030307800CCCCCCCCCCCCFC00CCCCCC1E
:1002B000CCCC783000C6C6C6D6FEEEC600C6C66C2C
:1002C000386CC6C600CCCCCC7830307800FECC98E8
:1002D0003062C6FE007860606060607800C06030A8
:1002E000180C060200781818181818780010386CC6
:1002F000C60000000000000000000000FF303018C1
:1003000000000000000000780C7CCC7600E0607CEF
:10031000666666BC00000078CCC0CC78001C0C0C73
:100320007CCCCC7600000078CCFCC07800386C60C7
:10033000F06060F000000076CCCC7C0CF8E0606CE3
:10034000766666E60030007030303078001800784D
:10035000181818D870E060666C786CE60070303061
:1003600030303078000000ECFED6C6C6000000F841
:10037000CCCCCCCC00000078CCCCCC78000000DC1D
:1003800066667C60F0000076CCCC7C0C1E0000D849
:100390006C6C60F00000007CC0780CF80010307CC1
:1003A00030303418000000CCCCCCCC76000000CC2F
:1003B000CCCC7830000000C6C6D6FE6C000000C66B
:1003C0006C386CC6000000CCCCCC7C0CF80000FC77
:1003D000983064FC001C3030E030301C00181818D5
:1003E0000018181800E030301C3030E00076DC00D7
:1003F000000000000010386CC6C6C6FE00000000F9
:1004000000240027002A0000000000250028002BFF
:1004100000040404040404040402020202020203AD
:1004200003030303030102040810204080010204B7
:10043000081020010204081020000000080002013A
:1004400000000304070000000000000000001B1271
:1004500011241FBECFEFD8E0DEBFCDBF12E0A0E079
:10046000B1E0ECE4F6E202C005900D92A033B107D2
:10047000D9F724E0A0E3B2E001C01D92A03BB2078F
:10048000E1F712E0C8E2D2E004C02197FE010E9429
:100490000A13C732D107C9F70E94980D0C94241390
:1004A0000C9400005F9A0895CF92EF92FF920F9301
:1004B0001F93CF93DF93EC01262F6A3081F48EAD2A
:1004C0009FAD9BAF8AAF2CA92F778CAD9DAD38E047
:1004D000239F800D911D11249DAF8CAF47C0862FA7
:1004E0008B7F893009F442C06AAD7BAD203219F4AC
:1004F00061157105D9F1E881F981E8ACF9AC0EA973
:100500001FA94CAD5DAD0088F189E02DCCA8CE01CE
:100510000995BC019BAF8AAF8DA9882339F12CA91D
:100520002F77822F90E048EF4203900111244E81F3
:100530005F81420F531F46175707C4F44EAD5FAD9E
:100540005BAF4AAF43E0880F991F4A95E1F74CAD86
:100550005DAD840F951F9DAF8CAF48855985240FE5
:10056000351F2817390714F41DAE1CAE81E090E04A
:10057000DF91CF911F910F91FF90EF90CF90089551
:10058000CF92EF92FF920F931F93DC01ED91FC91BC
:100590000684F785E02D09951F910F91FF90EF904C
:1005A000CF9008952F923F924F925F926F927F92D9
:1005B0008F929F92AF92BF92CF92DF92EF92FF9273
:1005C0000F931F93CF93DF9300D01F92CDB7DEB769
:1005D0009B838A83480188E0280290011124D90175
:1005E000A350B0405D01BC2DBF77CB2EEA81FB81CB
:1005F00086819781F1E0FB1708F463C06B0128E066
:10060000C20ED11C8C159D050CF46EC0AA81BB8155
:100610001896ED91FC9119979A01285F3F4FE217C8
:10062000F3070CF461C0AA81BB81ED91FC91119795
:100630008A01095F1F4F9B01295F3F4F0680F781A9
:10064000E02DCD010995AA81BB81ED91FC91119717
:100650000084F185E02DCD0109958501085F1F4FCC
:10066000F5014490FFEFAF1ABF0A98E0692E712C94
:1006700020E8522EAA81BB81ED91FC911197852D26
:1006800084210284F385E02D882319F0B401CD0183
:1006900003C0B7018A819B8109955694B1E06B1A1A
:1006A000710841F7A016B106D9F6AA81BB81ED9178
:1006B000FC9111970484F585E02DCD010995C601C3
:1006C00076C0B8E0CB9E800111243B01600E711E04
:1006D000861597054CF0040F151FEA81FB812085D4
:1006E00031852017310714F4019661C0AA81BB81BE
:1006F000ED91FC911197015011090680F781E02DD1
:10070000930121503109CD010995AA81BB81ED9159
:10071000FC9111970084F185E02DCD01099525010B
:10072000B8E04B0E511CF5012490FFEFAF1ABF0A41
:100730003C2C08E010E080E8D82E8D2D82212C2D55
:10074000A1F0AA81BB81ED91FC9111970284F38500
:10075000E02DB401CD01298309952981215089F724
:10076000D6940150110949F710C0AA81BB81ED91BF
:10077000FC9111970284F385E02DB701CD01298307
:1007800009952981215089F7EBCF3A943110D1CFC7
:10079000A414B50409F0C7CFAA81BB81ED91FC91E7
:1007A00011970484F585E02DCD010995C3010F90C3
:1007B0000F900F90DF91CF911F910F91FF90EF90CD
:1007C000DF90CF90BF90AF909F908F907F906F9071
:1007D0005F904F903F902F90089585ED8093BC00DF
:1007E0008091BC0084FDFCCF1092C102089540911D
:1007F0005402262F30E0240F311D21323105DCF464
:100800002091C1022430C9F4FC0180E090E08617F9
:1008100058F4309154022191DC01AE5CBD4FA30F1E
:10082000B11D2C930196F3CF80915402680F609311
:10083000540280E0089581E0089582E008950895CB
:10084000E0917A0280917902E81730F4F0E0E558FF
:10085000FD4F808190E008958FEF9FEF0895909174
:100860007A0280917902981750F4E92FF0E0E55868
:10087000FD4F208130E09F5F90937A0202C02FEFFE
:100880003FEFC90108958091790290E020917A02AA
:10089000821B91090895CF92DF92EF92FF920F93FE
:1008A0001F93CF93DF937C01262F972F8A0180918E
:1008B000E402882391F0C62FD72F6E01C40ED51EF7
:1008C000CC15DD0571F06991D701ED91FC91019096
:1008D000F081E02DC7010995F3CF642F822F0E948C
:1008E000F703C801DF91CF911F910F91FF90EF9017
:1008F000DF90CF900895CF93DF931F92CDB7DEB7EF
:1009000069832091E4022223D1F02091E202203277
:1009100040F021E030E0FC013383228380E090E06E
:1009200015C08091E302E82FF0E0EE53FD4F99816E
:1009300090838F5F8093E3028093E20205C061E0C1
:10094000CE0101960E94F70381E090E00F90DF91C5
:10095000CF9108956CE20E94890D5F980895AF923F
:10096000BF92CF92DF92EF92FF920F931F93CF939C
:10097000DF93EC015B017A0169016AE20E94890D53
:10098000B501CE010E94640DB601CE010E94640D36
:100990006BE2CE010E94890DB701CE010E94640D69
:1009A000B801CE01DF91CF911F910F91FF90EF9091
:1009B000DF90CF90BF90AF900C94640D0F931F9376
:1009C000CF93DF93EC016930710519F06A35710539
:1009D00071F48AE590E09D838C8380EF90E09F83A3
:1009E0008E8380E491E09987888718E434C062316F
:1009F000710519F0643B710571F484EB90E09D83FF
:100A00008C8380E491E09F838E8380EF90E09987D0
:100A1000888718E320C06B31710521F07E7F6E302E
:100A2000710571F48EE091E09D838C8380EF90E0FE
:100A30009F838E8380E491E09987888718E80BC0B4
:100A40001D821C8280E491E09F838E8380EF90E082
:100A50009987888718EE66E3CE010E94890D612F81
:100A6000CE010E94550DE881F98108851985015054
:100A700011092E813F81215031090680F781E02D37
:100A800040E050E060E070E0CE010995DF91CF9149
:100A90001F910F9108958EBD00000DB407FEFDCF8C
:100AA0008EB50895CF93DF931F92CDB7DEB7872F12
:100AB0002B9A2D989CB59F7B9CBD2D9A9CB59064DC
:100AC0009CBD69830E944B052B9A2D989CB59F7BFA
:100AD0009CBD2D9A9CB590649CBD6981862F0F901A
:100AE000DF91CF910C944B058F929F92AF92BF9262
:100AF000EF92FF920F931F93CF93DF93EC017B0153
:100B0000E881F98108851985015011092E813F81FD
:100B1000215031090680F781E02D40E050E060E08F
:100B200070E00995E881F9810084F185E02DCE011E
:100B30000995AE81BF81288539850E94FB124B0142
:100B40005C0183E0B694A794979487948A95D1F733
:100B5000E881F98181149104A104B10409F444C02D
:100B60000284F385E02DB701CE010995E881F98172
:100B70000284F385E02DB701CE010995E881F98162
:100B80000284F385E02DB701CE010995E881F98152
:100B90000284F385E02DB701CE010995E881F98142
:100BA0000284F385E02DB701CE010995E881F98132
:100BB0000284F385E02DB701CE010995E881F98122
:100BC0000284F385E02DB701CE010995E881F98112
:100BD0000284F385E02DB701CE01099581E0881AE2
:100BE0009108A108B108B4CF0484F585E02DCE01A9
:100BF000DF91CF911F910F91FF90EF90BF90AF9039
:100C00009F908F9009941F920F920FB60F9211240C
:100C10002F933F934F935F936F937F938F939F9304
:100C2000AF93BF93EF93FF938091B900887F803695
:100C300009F49CC068F5883209F45BC090F48031F7
:100C400009F454C038F4882309F4F6C0883009F454
:100C50004DC0F6C0883109F44CC0803209F45DC043
:100C6000EFC0803409F468C048F4803309F455C0FB
:100C7000883309F0E5C08093BF02D8C0803509F4FD
:100C80004FC0883509F45DC0883409F0D9C0D6C09A
:100C9000883909F4C7C0A8F4883709F467C038F464
:100CA000883609F463C0803709F460C0C9C0883849
:100CB00009F4B8C0803909F45FC0803809F0C0C0B9
:100CC0005BC0803B09F486C038F4803A09F466C002
:100CD000883A09F47FC0B4C0803C09F4A7C0883CBE
:100CE00009F4A4C0883B09F48AC0AAC080919C0280
:100CF00010C09091BE028091BD02981770F5E091EE
:100D0000BE0281E08E0F8093BE02F0E0E356FD4FFD
:100D100080818093BB0085EC86C08093BF028EC02B
:100D2000E091BE0281E08E0F8093BE028091BB00F5
:100D3000F0E0E356FD4F80839091BE028091BD02AA
:100D40006EC0E091BE0281E08E0F8093BE02809162
:100D5000BB00F0E0E356FD4F80838091C00281111B
:100D60006DC081E080939B0284EA61C083E0809340
:100D7000C10210927802CFCF80917802803208F0C1
:100D800051C0E091780281E08E0F809378028091CB
:100D9000BB00F0E0E85AFD4F8083BDCF85EC809327
:100DA000BC001092C10280917802803230F4E09150
:100DB0007802F0E0E85AFD4F10826091780270E00E
:100DC000E0915602F091570288E592E00995109261
:100DD000780236C084E08093C102109255021092CE
:100DE0005402E0915202F09153020995809154020D
:100DF000811105C081E08093540210923202E0918B
:100E0000550281E08E0F80935502F0E0EE5CFD4FBD
:100E100080818093BB009091550280915402981775
:100E200008F479CF85E88093BC000AC085EC8093F4
:100E3000BC001092C10204C01092BF020E94ED03D8
:100E4000FF91EF91BF91AF919F918F917F916F91A2
:100E50005F914F913F912F910F900FBE0F901F9078
:100E60001895CF92DF92EF92FF920F931F93CF933B
:100E7000DF936C017A018B01C0E0D0E0CE15DF0575
:100E800089F0D8016D918D01D601ED91FC91019011
:100E9000F081E02DC6010995892B11F47E0102C075
:100EA0002196ECCFC701DF91CF911F910F91FF9059
:100EB000EF90DF90CF900895FC01918D828D98176F
:100EC00061F0828DDF01A80FB11D5D968C91928D2E
:100ED0009F5F9F73928F90E008958FEF9FEF08952B
:100EE000FC01918D828D981731F0828DE80FF11DF4
:100EF000858D90E008958FEF9FEF0895FC01918D0F
:100F0000228D892F90E0805C9F4F821B91098F7307
:100F100099270895FC01848DDF01A80FB11DA35A04
:100F2000BF4F2C91848D90E001968F739927848F09
:100F3000A689B7892C93A089B1898C9180648C9300
:100F4000938D848D981306C00288F389E02D8081EB
:100F50008F7D80830895EF92FF920F931F93CF931D
:100F6000DF93EC0181E0888F9B8D8C8D981305C0F9
:100F7000E889F989808185FD24C0F62E0B8D10E06B
:100F80000F5F1F4F0F731127E02E8C8DE8120CC0DE
:100F90000FB607FCFACFE889F989808185FFF5CF84
:100FA000CE010E948A07F1CF8B8DFE01E80FF11D63
:100FB000E35AFF4FF0820B8FEA89FB8980818062C0
:100FC00007C0EE89FF896083E889F98980818064A0
:100FD000808381E090E0DF91CF911F910F91FF908E
:100FE000EF900895CF93DF93EC01888D8823C9F0AB
:100FF000EA89FB89808185FD05C0A889B9898C9122
:1010000086FD0FC00FB607FCF5CF808185FFF2CFBC
:10101000A889B9898C9185FFEDCFCE010E948A07FE
:10102000E7CFDF91CF9108953FB7F8948091AB045B
:101030009091AC04A091AD04B091AE0426B5A89BEC
:1010400005C02F3F19F00196A11DB11D3FBFBA2F5A
:10105000A92F982F8827820F911DA11DB11DBC01BA
:10106000CD0142E0660F771F881F991F4A95D1F77F
:1010700008956115710579F0FB0101900020E9F7F1
:101080003197AF01461B570BDC01ED91FC910280BB
:10109000F381E02D099480E090E008958F929F9273
:1010A000AF92BF920F931F93CF93DF93CDB7DEB76D
:1010B000A1970FB6F894DEBF0FBECDBF19A2423084
:1010C00008F44AE08E010F5D1F4F842E912CA12C55
:1010D000B12CA50194010E94D912E62FB901CA01D1
:1010E00001501109EA3014F4E05D01C0E95CD80157
:1010F000EC93232B242B252B61F7B80188EF92E08A
:101100000E943908A1960FB6F894DEBF0FBECDBF7E
:10111000DF91CF911F910F91BF90AF909F908F90D3
:1011200008950E9410138F929F92AF92BF92CF9218
:10113000DF92EF92FF920F931F93CF93DF93EA0119
:101140007901680140911F0450912004841795078C
:1011500014F0CA01019720912104309122046217F2
:1011600073071CF0B90161507109FC01EC0FFD1F00
:10117000E417F5071CF0EA01C81BD90BAB014E0DB3
:101180005F1D421753071CF07901E61AF70AE09138
:101190001904F0911A048B010E0D1F1D0150110945
:1011A0009C012C0F3D1F215031090680F781E02D55
:1011B000AB01BC0189E194E00995E0911904F0913B
:1011C0001A040084F185E02D89E194E009959701E6
:1011D000DE010E94FB124B015C01E0911904F091C9
:1011E0001A0481149104A104B10469F00284F38506
:1011F000E02DB60189E194E0099581E0881A910813
:10120000A108B108EACF0484F585E02D89E194E0D6
:10121000DF91CF911F910F91FF90EF90DF90CF90D2
:10122000BF90AF909F908F900994CF93DF93682FDA
:1012300070E080E090E04AE00E944E08EC016CE231
:1012400072E088EF92E00E9439088C0F9D1FDF91B9
:10125000CF910895BC0188EF92E00C943908682F73
:1012600070E080E090E04AE00C944E08CF93C82FE5
:1012700081E08093E40282E58093AF041092E30260
:101280001092E20285E993E00E947B046C2F85E9CD
:1012900093E00E947B048091E202813208F045C015
:1012A0009091C1029111FCCF92E09093C10291E024
:1012B0009093C0029FEF9093BF021092BE02809362
:1012C000BD02A2ECB2E02DE932E0F9019E2F921BA3
:1012D000981718F49D919193F9CF10929C028091E8
:1012E0009C02846A80939C0280919B02813061F40D
:1012F00010929B0280919C028093BB008091BC0065
:1013000083FDF8CF85EC01C085EE8093BC00809111
:10131000C1028230E1F38091BF028F3F31F08091B2
:10132000BF02803211F08091BF021092E30210924E
:10133000E2021092E4028FE39CE90197F1F700C00A
:101340000000CF910895EF92FF921F93CF93DF9308
:10135000CDB7DEB72C970FB6F894DEBF0FBECDBF6A
:101360008091C1028111FCCF81E08093C102809302
:10137000C0029FEF9093BF021092BE0295E090933F
:10138000BD0280939C0280919C02846A80939C029F
:1013900080919B02813061F410929B0280919C02AB
:1013A0008093BB008091BC0083FDF8CF85EC01C029
:1013B00085EE8093BC008091C1028130E1F3809181
:1013C000BE02863018F41091BE0201C016E0ADE9ED
:1013D000B2E02BE732E0F9018E2F821B811718F45F
:1013E0008D918193F9CF10927A0210937902CE01F8
:1013F00001967C0180917A02181749F085E993E003
:101400000E942F04F701819391937F01F3CF89818B
:101410009A819093EA028093E9028B819C81909358
:10142000EC028093EB028B859C859C01359527957A
:1014300035952795A901437055272D813E81220FAF
:10144000331F220F331F242B352B3093EE022093B2
:10145000ED029C0174E0359527957A95E1F7A90195
:10146000437055272F813885220F331F220F331FDA
:10147000242B352B3093F0022093EF029C01F6E0F1
:1014800035952795FA95E1F7A901437055272985E8
:101490003A85220F331F220F331F242B352B309315
:1014A000F2022093F1029C0121703327F1E02F27F3
:1014B0003093E6022093E50221E030E081FF02C094
:1014C00020E030E03093E8022093E70260E080E023
:1014D0000E9436092091E9023091EA028091F302DC
:1014E0009091F402A901481B590B4630510514F0A4
:1014F00082E005C0821B930B069724F081E0809365
:10150000F70202C01092F7022091EB023091EC0238
:101510008091F5029091F602A901481B590B4630C3
:10152000510514F083E005C0821B930B06971CF055
:1015300084E08093F7028091F7022C960FB6F8941E
:10154000DEBF0FBECDBFDF91CF911F91FF90EF9017
:1015500008955F926F927F928F929F92AF92BF9207
:10156000CF92DF92EF92FF920F931F93CF93DF936F
:10157000CDB7DEB7C857D1090FB6F894DEBF0FBE9E
:10158000CDBFFC012281338130931C0420931B04C6
:101590002481358130931E0420931D0426813781D8
:1015A0003093200420931F0420853185309322043A
:1015B000209321042285338530932404209323042F
:1015C0002485358530932604209325042685378588
:1015D00030932804209327042089318930932A04EA
:1015E000209329042289338930932C0420932B04DF
:1015F0002489358930932E0420932D042689378938
:101600003093300420932F042CE17896A1E3B4E0CA
:1016100001900D922A95E1F7FC0124A920934D0435
:1016200025A920934E0426A937A93093500420936E
:101630004F0420AD31AD309352042093510422ADBC
:1016400033AD309354042093530424AD35AD30931F
:1016500056042093550426AD37AD3093580420939B
:101660005704E05CFF4F80818093590488E7E0E0F5
:10167000F1E0DE01119601900D928A95E1F720E0EC
:1016800030E080E090E0AC01420F531FFA01EF55CB
:10169000FC4FA1E0B0E0AC0FBD1FA40FB51F4C91F3
:1016A000408301968C30910571F7245F3F4F2837B6
:1016B000310539F76DEC74EA89E194E00E94740514
:1016C00004E419E228ED30E048E051E06DE070E01C
:1016D00080E390E00E94930891EA892E93E0992E8E
:1016E000512C2DE0C22ED12C80E3E82EF12CA12C20
:1016F000B12C34016A0C7B1CF30180818230A9F08B
:1017000028F4813069F50DEC14EA11C08330C1F082
:10171000843031F500E018EF28E130E048E150E096
:10172000B601C7010E94930819C00DE61BEA28E123
:1017300030E048E150E0B601C7010E94930810C0B4
:1017400000E018EF28E130E048E150E0B601C701C1
:101750000E94930850925A04A0925B04F3011082F5
:10176000F8E1EF0EF11C8FEFA81AB80AE8E3EE16C5
:10177000E1E0FE0609F0BDCFF8E1CF0ED11C8CE010
:10178000880E911C5394E9E05E12AECFC858DF4F2B
:101790000FB6F894DEBF0FBECDBFDF91CF911F9182
:1017A0000F91FF90EF90DF90CF90BF90AF909F9000
:1017B0008F907F906F905F9008950F931F93CF93BA
:1017C000DF93EC010E9439088C016CE272E0CE01DB
:1017D0000E943908800F911FDF91CF911F910F91C7
:1017E00008951F920F920FB60F9211242F933F93DB
:1017F0004F935F936F937F938F939F93AF93BF9319
:10180000EF93FF9388EF92E00E948A07FF91EF9198
:10181000BF91AF919F918F917F916F915F914F9108
:101820003F912F910F900FBE0F901F9018951F9210
:101830000F920FB60F9211242F938F939F93EF93D4
:10184000FF93E0910803F09109038081E0910E037A
:10185000F0910F0382FD12C09081809111038F5F80
:101860008F7320911203821751F0E0911103F0E081
:10187000E850FD4F958F8093110301C08081FF9147
:10188000EF919F918F912F910F900FBE0F901F900E
:10189000189590E0FC01E75CFB4F3491FC01EB5D97
:1018A000FB4F2491FC01EF5EFB4FE491EE2309F422
:1018B0003BC0332339F1333091F038F43130A9F0A3
:1018C000323001F584B58F7D12C0373091F0383059
:1018D000A1F03430B9F4809180008F7D03C08091F5
:1018E00080008F77809380000DC084B58F7784BD92
:1018F00009C08091B0008F7703C08091B0008F7DC8
:101900008093B000F0E0EE0FFF1FE95FFB4FA59161
:10191000B4918FB7F894EC91611103C020952E23F8
:1019200001C02E2B2C938FBF0895CF93DF9390E0AF
:10193000FC01EB5DFB4F2491FC01EF5EFB4F8491BA
:10194000882361F190E0880F991FFC01E350FC4F60
:10195000C591D491FC01E95FFB4FA591B491611150
:1019600009C09FB7F8948881209582238883EC91E1
:101970002E230BC0623061F49FB7F8943881822F18
:10198000809583238883EC912E2B2C939FBF06C0D8
:101990008FB7F894E8812E2B28838FBFDF91CF91EA
:1019A00008958F929F92AF92BF92CF92DF92EF9263
:1019B000FF926B017C010E9414084B015C01C11471
:1019C000D104E104F104F1F00E941408DC01CB0120
:1019D00088199909AA09BB09883E9340A105B10558
:1019E00070F321E0C21AD108E108F10888EE880EF0
:1019F00083E0981EA11CB11CC114D104E104F104C0
:101A000019F7DDCFFF90EF90DF90CF90BF90AF90B0
:101A10009F908F9008951F920F920FB60F921124EE
:101A20002F933F938F939F93AF93BF938091A7047E
:101A30009091A804A091A904B091AA043091A604A1
:101A400023E0230F2D3720F40196A11DB11D05C001
:101A500026E8230F0296A11DB11D2093A6048093B2
:101A6000A7049093A804A093A904B093AA0480911A
:101A7000AB049091AC04A091AD04B091AE0401967A
:101A8000A11DB11D8093AB049093AC04A093AD0451
:101A9000B093AE04BF91AF919F918F913F912F91E1
:101AA0000F900FBE0F901F901895862F5F982B9A5E
:101AB0002D989CB59F7B9CBD2D9A9CB590649CBD38
:101AC0000E944B055F9A0895CF93DF931F92CDB785
:101AD000DEB7872F5F982B9A2D989CB59F7B9CBD76
:101AE0002D9A9CB590649CBD69830E944B052B9AEE
:101AF0002D989CB59F7B9CBD2D9A9CB590649CBDF8
:101B00006981862F0E944B055F9A0F90DF91CF91DC
:101B10000895862F5F982B982D989CB59F7B9CBD30
:101B20002D9A9CB590649CBD0E944B055F9A0895C8
:101B3000CF93DF93CDB7DEB7C254D1090FB6F89477
:101B4000DEBF0FBECDBF789484B5826084BD84B5FE
:101B5000816084BD85B5826085BD85B5816085BDA8
:101B600080916E00816080936E0010928100809160
:101B700081008260809381008091810081608093E8
:101B80008100809180008160809380008091B1000D
:101B900084608093B1008091B00081608093B00038
:101BA00080917A00846080937A0080917A008260CC
:101BB00080937A0080917A00816080937A0080918E
:101BC0007A00806880937A001092C10010927A02A5
:101BD000109279021092E3021092E2021092C10276
:101BE00081E08093C00210929B0261E082E10E943A
:101BF000490C61E083E10E94490C8091B9008E7F1D
:101C00008093B9008091B9008D7F8093B90088E4FA
:101C10008093B80085E48093BC0060EF85E50E9466
:101C200036096BEF80E00E9436092FEF31EE44E079
:101C3000215030404040E1F700C000000E94A3095D
:101C40000E94A3098091E9029091EA029093F40224
:101C50008093F3028091EB029091EC029093F60254
:101C60008093F50261E088E00E94950C289861E07D
:101C700089E00E94950C61E087E00E94950C61E08C
:101C80008DE00E94950C61E08BE00E94950C60E075
:101C90008CE00E94950C29985F9A61E086E00E9492
:101CA000950C5E9A1092A5048CB5837F8CBD8CB583
:101CB0008F7D8CBD1FB7F89480913102811127C0B0
:101CC000EBE1F4E08491EFE2F4E09491E82FF0E0AE
:101CD000EE0FFF1FE350FC4FA591B491EC91E92367
:101CE00021F461E08AE00E94490C61E08AE00E94F0
:101CF000950C8CB580618CBD8CB580648CBD61E029
:101D00008DE00E94950C61E08BE00E94950C809123
:101D100031028F5F809331021FBF8CB58C7F816051
:101D20008CBD8DB581608DBD5F9A289862E370E0AF
:101D300080E090E00E94D10C289A68E770E080E093
:101D400090E00E94D10CE8E6F0E07F018FEFE81A06
:101D5000F80A64916F3FB1F1862F807C8038B9F02A
:101D6000803C49F1803411F0F701EFCF162F1F733B
:101D70006F01012FFFEFCF1ADF0A0023C9F0F60130
:101D8000649185E694E00E94890D0150F3CF162FEF
:101D90001F736F01012FFFEFCF1ADF0A002341F0FD
:101DA000F601649185E694E00E94550D0150F3CF51
:101DB000E10EF11CD9CF6F7370E080E090E00E94DB
:101DC000D10CD2CF60E070E085E694E00E9474050B
:101DD0008CB58C7F8CBD8DB58E7F8DBD61E089E02B
:101DE0000E94950CE2E4F4E0E491E33019F150F440
:101DF000E130D1F0E230E1F584B5806284BD8FE757
:101E000088BD3AC0E73011F1E83049F1E43081F59E
:101E1000809180008062809380008FE790E09093B3
:101E20008B0080938A0028C084B5806884BD8FE7CA
:101E300087BD22C0809180008068809380008FE7FA
:101E400090E0909389008093880016C08091B00044
:101E500080688093B0008FE78093B3000DC08091BD
:101E6000B00080628093B0008FE78093B40004C01C
:101E700060E089E00E94490C8091670490916804B9
:101E80009C838B838091690490916A049E838D83E7
:101E900080916B0490916C0498878F8380916D047E
:101EA00090916E049A87898780916F049091700455
:101EB0009C878B8780917104909172049E878D8797
:101EC0008091730490917404988B8F87809175042E
:101ED000909176049A8B898B809177049091780405
:101EE0009C8B8B8B8091790490917A049E8B8D8B47
:101EF00080917B0490917C04988F8F8B8CE1EDE72F
:101F0000F4E0DE01599601900D928A95E1F78091F7
:101F100099048DAB80919A048EAB80919B04909133
:101F20009C0498AF8FAB80919D0490919E049AAFD2
:101F300089AF80919F049091A0049CAF8BAF80915A
:101F4000A1049091A2049EAF8DAF8091A3049091C3
:101F5000A40421969FAF8EAF21978AEB91E09A83DC
:101F600089838091A50422968FAF2297CE01019696
:101F70000E94A90AE0910803F091090382E080839E
:101F8000E0910403F09105031082E0910603F091C3
:101F900007038FEC808310921003E0910C03F09103
:101FA0000D0386E08083E0910A03F0910B038081AA
:101FB00080618083E0910A03F0910B038081886047
:101FC0008083E0910A03F0910B0380818068808315
:101FD000E0910A03F0910B0380818F7D80836CEC8C
:101FE00071E088EF92E00E94DD0B80915B0490919C
:101FF0005A0490935C0480935D04109262041092E2
:10200000630483E0809364042CE0F22E38E1E32E35
:102010000E94A309282F80915C04E0915D049FEF4A
:10202000980F9B3F58F4EB3F48F4FE9ED0011124DB
:10203000A90FB11DAF55BC4FDC9002C092E0D92E64
:1020400091E0980F9B3F58F4EB3F48F4FE9ED0017F
:102050001124A90FB11DAF55BC4F1C9101C012E056
:102060008B3F70F4AFEFAE0FAB3F08F0D6C1FA9ED6
:10207000D0011124A80FB11DAF55BC4F0C91CEC19A
:1020800002E082E0C82E8D2D23962FAF23970E9469
:102090001509812F0E941509802F0E9415098C2D8A
:1020A0000E94150923962FAD2397223009F4EEC024
:1020B00020F4213009F49DC0ABCF233021F024302F
:1020C00009F44DC0A5CF62ED71E088EF92E00E9467
:1020D000DD0B6BED71E088EF92E00E94DD0B8FEE7F
:1020E00091E00E942A0980915C040E942F0981EFEF
:1020F00091E00E942A09809162040E94150983EFF1
:1021000091E00E942A0980915D040E942F0981EFCD
:1021100091E00E942A09809163040E941509809130
:1021200062048111FCC080916304811112C00150CE
:10213000023008F4F4C080915D04882309F4EFC0F4
:10214000815080935D04809164042E2D281B822F82
:1021500003C090916404891B80936304DEC06AE02D
:1021600072E088EF92E00E94DD0B6BED71E088EF8A
:1021700092E00E94DD0B8FEE91E00E942A0980918F
:102180005C040E942F0981EF91E00E942A0980914E
:1021900062040E94150983EF91E00E942A09809150
:1021A0005D040E942F0981EF91E00E942A0980912D
:1021B00063040E941509809162048111B0C090915E
:1021C0006304911108C08FEF8C0D823008F4A7C012
:1021D00080916404C1CF80916404890F883109F033
:1021E000BBCF1092630480915D048F5F80935D0488
:1021F00094C065E172E088EF92E00E94DD0B6BED28
:1022000071E088EF92E00E94DD0B8FEE91E00E947A
:102210002A0980915C040E942F0981EF91E00E94BD
:102220002A09809162040E94150983EF91E00E94BF
:102230002A0980915D040E942F0981EF91E00E949C
:102240002A09809163040E94150980916304811119
:1022500066C080916204811113C08FEF8D0D8230B2
:1022600008F45DC080915C04882309F458C0815053
:1022700080935C04809164043E2D381B832F03C03F
:1022800090916404891B8093620447C060E272E00D
:1022900088EF92E00E94DD0B6BED71E088EF92E039
:1022A0000E94DD0B8FEE91E00E942A0980915C0470
:1022B0000E942F0981EF91E00E942A098091620417
:1022C0000E94150983EF91E00E942A0980915D0424
:1022D0000E942F0981EF91E00E942A0980916304F6
:1022E0000E94150980916304811119C090916204C4
:1022F000911106C01150123090F080916404C3CF48
:1023000080916404890F883108F4BDCF1092620473
:1023100080915C048F5F80935C0411E001C010E049
:1023200067EF71E088EF92E00E94DD0B8FEE91E0A5
:102330000E942A0980915C040E942F0981EF91E09C
:102340000E942A09809162040E94150983EF91E09E
:102350000E942A0980915D040E942F0981EF91E07B
:102360000E942A09809163040E941509112309F42F
:102370004FCE20915E0480915F0430915C04909177
:102380005D04C0906204D12C48E1349FC00CD11C84
:102390001124E0E3CE0ED11CA0906304B12CF8E12F
:1023A0009F9FA00CB11C11243DE0A30EB11C6091B5
:1023B000610470E048E1849F600D711D1124635F2A
:1023C0007F4F8091600490E0E8E12E9F800D911D89
:1023D000112404E419E228E130E048E150E0C0961D
:1023E0000E94930800E018EF28E130E048E150E057
:1023F000B501C6010E94930880915C0480935E043D
:1024000080915D0480935F048091620480936004F6
:102410008091630480936104FBCD02E0EF5FEB3FAA
:1024200008F02FCEFE9EF0011124E80FF11DEF55AC
:10243000FC4FC08028CEE8EFF2E01382128288EED3
:1024400093E0A0E0B0E084839583A683B7832CE774
:1024500031E03183208325EC30E03587248724EC7C
:1024600030E03787268720EC30E0318B208B21EC61
:1024700030E0338B228B22EC30E0358B248B26EC42
:1024800030E0378B268B118E128E138E148EE5E979
:10249000F3E01382128284839583A683B7838CE84A
:1024A00091E091838083E5E6F4E013821282158245
:1024B0001482A0E4B1E0B783A68360EF70E0718777
:1024C0006087178616861586148613861286178AE5
:1024D000168A158A148A138A128A118A108A10AAF7
:1024E00011AA12AA13AA81E084AB85AB17AA16AA77
:1024F0004FEF5FEF51AF40AF1092A4041092A304CE
:1025000015AE14AE13AE12AE2AEB31E03183208348
:1025100010921C0410921B0410921E0410921D04B1
:10252000B0932004A0931F047093220460932104AD
:102530001092280410922704109226041092250469
:1025400010922404109223041092300410922F044D
:1025500010922E0410922D0410922C0410922B0431
:1025600010922A04109229041092490410924A04ED
:1025700010924B0410924C0480934D0480934E04AF
:102580001092500410924F045093520440935104FF
:102590001092580410925704109256041092550449
:1025A000109254041092530430931A042093190487
:1025B0000895A1E21A2EAA1BBB1BFD010DC0AA1F84
:1025C000BB1FEE1FFF1FA217B307E407F50720F09C
:1025D000A21BB30BE40BF50B661F771F881F991F17
:1025E0001A9469F760957095809590959B01AC0160
:1025F000BD01CF0108950E941513332312F48A1BE5
:102600009B0B0C9405130E941513B7FF0895821BB2
:10261000930B0895EE0FFF1F0590F491E02D0994A0
:1026200081E090E0F8940C942413A29FB001B39F32
:10263000C001A39F700D811D1124911DB29F700DCB
:0C264000811D1124911D0895F894FFCF16
:10264C000300000000000000000000010001020176
:10265C00000100010001000100000000000000006A
:10266C000000000100010001000100010001000157
:10267C000000000000020000000000010001000149
:10268C00000100010001000100000000000000003A
:10269C000200020100010001000100010001000123
:1026AC000000000000000000020004010101010113
:1026BC00010101010101010100000000AB0731071C
:1026CC007E075C077007F207000000007B044B04D8
:1026DC0043042F0420041F0400000000540231079F
:1026EC0091089108910891089108D202C00200004B
:1026FC000000910831070000000054023107DE048D
:10270C00AF04AA0452055202D202C002736574755A
:10271C007000646972203D205550007570646174BE
:10272C0065506C61796572206265666F72650058E0
:10273C003A0900593A0900757064617465506C610E
:10274C0079657220616674657200646972203D203F
:10275C00444F574E00646972203D204C454654004E
:10276C00646972203D205249474854000D0A00000C
:00000001FF
