:100000000C9428020C9450020C9450020C94500250
:100010000C9450020C9450020C9450020C94500218
:100020000C9450020C9450020C9450020C94500208
:100030000C9450020C9450020C9450020C945002F8
:100040000C94230B0C9450020C9450020C9450020C
:100050000C9450020C9450020C9450020C945002D8
:100060000C9467070C9450024128D441CF8300833D
:100070003041ED846403128141E88385017941CBED
:1000800085392C00340241F7812041EA8200004189
:10009000C0812641C1811141C582353E41C781BE23
:1000A00041B182001B41F281084126810141E08F6C
:1000B0001F1A180A0F064587320A07020705004172
:1000C000E18F0025270510093A784D05180D383ABB
:1000D0001F41B6840A82270041B78107413A815502
:1000E000413681E8412A82000082013F412B820093
:1000F000008200EF4111FCFC4129D4FFFF00000009
:10010000000000000030787830300030006C6C6CFB
:1001100000000000006C6CFE6CFE6C6C00307CC05B
:10012000780CF8300000C6CC183066C600386C3841
:1001300076DCCC76006060C0000000000018306003
:100140006060301800603018181830600000663C9D
:10015000FF3C660000003030FC3030000000000042
:100160000000703060000000FC0000000000000093
:100170000000303000060C183060C0800078CCDC05
:10018000FCECCC780030F030303030FC0078CC0C17
:100190003860CCFC0078CC0C380CCC78001C3C6C63
:1001A000CCFE0C0C00FCC0F80C0CCC78003860C005
:1001B000F8CCCC7800FCCC0C183060600078CCCC4B
:1001C00078CCCC780078CCCC7C0C18700000003057
:1001D0003000303000000030300070306018306087
:1001E000C0603018000000FC00FC00000060301807
:1001F0000C1830600078CC0C18300030007CC6DE63
:10020000DEDEC078003078CCCCFCCCCC00FC66665E
:100210007C6666FC003C66C0C0C0663C00FC6C6648
:1002200066666CFC00FE6268786862FE00FE6268CA
:10023000786860F0003C66C0C0CE663E00CCCCCC96
:10024000FCCCCCCC0078303030303078001E0C0C38
:100250000CCCCC7800E6666C786C66E600F06060EA
:10026000606266FE00C6EEFED6C6C6C600C6E6F6EC
:10027000DECEC6C600386CC6C6C66C3800FC6666E4
:100280007C6060F00078CCCCCCDC781C00FC66662E
:100290007C786CE60078CCE0381CCC7800FCB4307C
:1002A0003030307800CCCCCCCCCCCCFC00CCCCCC1E
:1002B000CCCC783000C6C6C6D6FEEEC600C6C66C2C
:1002C000386CC6C600CCCCCC7830307800FECC98E8
:1002D0003062C6FE007860606060607800C06030A8
:1002E000180C060200781818181818780010386CC6
:1002F000C60000000000000000000000FF303018C1
:1003000000000000000000780C7CCC7600E0607CEF
:10031000666666BC00000078CCC0CC78001C0C0C73
:100320007CCCCC7600000078CCFCC07800386C60C7
:10033000F06060F000000076CCCC7C0CF8E0606CE3
:10034000766666E60030007030303078001800784D
:10035000181818D870E060666C786CE60070303061
:1003600030303078000000ECFED6C6C6000000F841
:10037000CCCCCCCC00000078CCCCCC78000000DC1D
:1003800066667C60F0000076CCCC7C0C1E0000D849
:100390006C6C60F00000007CC0780CF80010307CC1
:1003A00030303418000000CCCCCCCC76000000CC2F
:1003B000CCCC7830000000C6C6D6FE6C000000C66B
:1003C0006C386CC6000000CCCCCC7C0CF80000FC77
:1003D000983064FC001C3030E030301C00181818D5
:1003E0000018181800E030301C3030E00076DC00D7
:1003F000000000000010386CC6C6C6FE00000000F9
:1004000000240027002A0000000000250028002BFF
:1004100000040404040404040402020202020203AD
:1004200003030303030102040810204080010204B7
:10043000081020010204081020000000080002013A
:100440000000030407000000000000000000190D78
:1004500011241FBECFEFD8E0DEBFCDBF11E0A0E07A
:10046000B1E0EEECF1E202C005900D92A034B107CC
:10047000D9F722E0A0E4B1E001C01D92A031B2079B
:10048000E1F712E0C8E2D2E004C02197FE010E9429
:100490009E0FC732D107C9F70E942A0D0C94E510B0
:1004A0000C940000CF92EF92FF920F931F93CF9383
:1004B000DF93EC01262F6A3081F48EAD9FAD9BAFA8
:1004C0008AAF2CA92F778CAD9DAD38E0239F800D8E
:1004D000911D11249DAF8CAF47C0862F8B7F893033
:1004E00009F442C06AAD7BAD203219F46115710583
:1004F000D9F1E881F981E8ACF9AC0EA91FA94CAD9E
:100500005DAD0088F189E02DCCA8CE010995BC0134
:100510009BAF8AAF8DA9882339F12CA92F77822F21
:1005200090E048EF4203900111244E815F81420F19
:10053000531F46175707C4F44EAD5FAD5BAF4AAFCC
:1005400043E0880F991F4A95E1F74CAD5DAD840FEC
:10055000951F9DAF8CAF48855985240F351F2817EF
:10056000390714F41DAE1CAE81E090E0DF91CF910D
:100570001F910F91FF90EF90CF900895CF92EF923F
:10058000FF920F931F93DC01ED91FC910684F78598
:10059000E02D09951F910F91FF90EF90CF90089556
:1005A0002F923F924F925F926F927F928F929F9283
:1005B000AF92BF92CF92DF92EF92FF920F931F9371
:1005C000CF93DF9300D01F92CDB7DEB79B838A8392
:1005D000480188E0280290011124D901A350B040BD
:1005E0005D01BC2DBF77CB2EEA81FB81868197818F
:1005F000F1E0FB1708F463C06B0128E0C20ED11CC8
:100600008C159D050CF46EC0AA81BB811896ED91E6
:10061000FC9119979A01285F3F4FE217F3070CF4FA
:1006200061C0AA81BB81ED91FC9111978A01095F9C
:100630001F4F9B01295F3F4F0680F781E02DCD01C1
:100640000995AA81BB81ED91FC9111970084F185F8
:10065000E02DCD0109958501085F1F4FF5014490FC
:10066000FFEFAF1ABF0A98E0692E712C20E8522ED6
:10067000AA81BB81ED91FC911197852D8421028483
:10068000F385E02D882319F0B401CD0103C0B70133
:100690008A819B8109955694B1E06B1A710841F7E4
:1006A000A016B106D9F6AA81BB81ED91FC911197F4
:1006B0000484F585E02DCD010995C60176C0B8E02A
:1006C000CB9E800111243B01600E711E861597059B
:1006D0004CF0040F151FEA81FB812085318520171E
:1006E000310714F4019661C0AA81BB81ED91FC91A0
:1006F0001197015011090680F781E02D93012150D7
:100700003109CD010995AA81BB81ED91FC91119729
:100710000084F185E02DCD0109952501B8E04B0E4F
:10072000511CF5012490FFEFAF1ABF0A3C2C08E0E2
:1007300010E080E8D82E8D2D82212C2DA1F0AA81E9
:10074000BB81ED91FC9111970284F385E02DB401FA
:10075000CD01298309952981215089F7D69401502B
:10076000110949F710C0AA81BB81ED91FC91119745
:100770000284F385E02DB701CD01298309952981F4
:10078000215089F7EBCF3A943110D1CFA414B5049E
:1007900009F0C7CFAA81BB81ED91FC911197048428
:1007A000F585E02DCD010995C3010F900F900F90B5
:1007B000DF91CF911F910F91FF90EF90DF90CF903D
:1007C000BF90AF909F908F907F906F905F904F9071
:1007D0003F902F900895EF92FF920F931F93CF9326
:1007E000DF93EC018E819F81681779075CF588851E
:1007F00099854817590734F57901E881F981068010
:10080000F781E02D8A019B01CE010995E881F981EC
:100810000084F185E02DCE010995E881F9810284FB
:10082000F385E02DB701CE010995E881F9810484B3
:10083000F585E02DCE01DF91CF911F910F91FF90B3
:10084000EF900994DF91CF911F910F91FF90EF905E
:1008500008958F929F92AF92BF92EF92FF920F9363
:100860001F93CF93DF93EC017B01E881F981088529
:100870001985015011092E813F81215031090680CF
:10088000F781E02D40E050E060E070E00995E881FC
:10089000F9810084F185E02DCE010995AE81BF81FB
:1008A000288539850E948F0F4B015C0183E0B69447
:1008B000A794979487948A95D1F7E881F981811458
:1008C0009104A104B10409F444C00284F385E02D2D
:1008D000B701CE010995E881F9810284F385E02D05
:1008E000B701CE010995E881F9810284F385E02DF5
:1008F000B701CE010995E881F9810284F385E02DE5
:10090000B701CE010995E881F9810284F385E02DD4
:10091000B701CE010995E881F9810284F385E02DC4
:10092000B701CE010995E881F9810284F385E02DB4
:10093000B701CE010995E881F9810284F385E02DA4
:10094000B701CE01099581E0881A9108A108B10884
:10095000B4CF0484F585E02DCE01DF91CF911F91B6
:100960000F91FF90EF90BF90AF909F908F90099460
:1009700085ED8093BC008091BC0084FDFCCF10927B
:10098000D301089540916501262F30E0240F311DD9
:1009900021323105DCF42091D3012430C9F4FC016B
:1009A00080E090E0861758F4309165012191DC01D8
:1009B000AD5BBE4FA30FB11D2C930196F3CF809179
:1009C0006501680F6093650180E0089581E00895F6
:1009D00082E008950895E091F4018091F501E8170F
:1009E00030F4F0E0EC52FE4F808190E008958FEFFC
:1009F0009FEF08959091F4018091F501981750F4BC
:100A0000E92FF0E0EC52FE4F208130E09F5F9093A1
:100A1000F40102C02FEF3FEFC90108958091F50165
:100A200090E02091F401821B91090895CF92DF920A
:100A3000EF92FF920F931F93CF93DF937C01262FAA
:100A4000972F8A0180918A01882391F0C62FD72F92
:100A50006E01C40ED51ECC15DD0571F06991D7016C
:100A6000ED91FC910190F081E02DC7010995F3CF44
:100A7000642F822F0E94C204C801DF91CF911F9181
:100A80000F91FF90EF90DF90CF900895CF93DF9379
:100A90001F92CDB7DEB7698320918A012223D1F05E
:100AA0002091AC01203240F021E030E0FC013383A2
:100AB000228380E090E015C080918B01E82FF0E068
:100AC000E457FE4F998190838F5F80938B018093D1
:100AD000AC0105C061E0CE0101960E94C20481E034
:100AE00090E00F90DF91CF9108950F931F93CF93D4
:100AF000DF93EC016930710519F06A35710571F405
:100B00008AE590E09D838C8380EF90E09F838E83C5
:100B100080E491E09987888718E434C062317105D8
:100B200019F0643B710571F484EB90E09D838C8334
:100B300080E491E09F838E8380EF90E0998788879F
:100B400018E320C06B31710521F07E7F6E30710596
:100B500071F48EE091E09D838C8380EF90E09F8321
:100B60008E8380E491E09987888718E80BC01D8206
:100B70001C8280E491E09F838E8380EF90E09987D0
:100B8000888718EE66E3CE010E94D60C612FCE0155
:100B90000E94C70CE881F981088519850150110967
:100BA0002E813F81215031090680F781E02D40E000
:100BB00050E060E070E0CE010995DF91CF911F9188
:100BC0000F9108958EBD00000DB407FEFDCF8EB5C8
:100BD00008958F929F92AF92BF92CF92DF92EF9241
:100BE000FF920F931F93CF93DF93EC01690158019C
:100BF0002E813F81621773071CF0B90161507109A2
:100C000088859985481759071CF0AC014150510956
:100C1000FB01EC0DFD1DE217F3071CF06901C61A7C
:100C2000D70A9A012A0D3B1D281739071CF05C01D1
:100C3000A41AB50AE881F9818A010A0D1B1D015029
:100C400011099B012C0D3D1D215031090680F781B2
:100C5000E02DCE010995E881F9810084F185E02D30
:100C6000CE0109959501D6010E948F0F4B015C01C1
:100C7000E881F98181149104A104B10461F0028436
:100C8000F385E02DB701CE01099581E0881A91081E
:100C9000A108B108EDCF0484F585E02DCE01DF91E8
:100CA000CF911F910F91FF90EF90DF90CF90BF9069
:100CB000AF909F908F9009942F923F924F925F92A6
:100CC0006F927F928F929F92AF92BF92CF92DF925C
:100CD000EF92FF920F931F93CF93DF93CDB7DEB7C1
:100CE00028970FB6F894DEBF0FBECDBF4C016B0145
:100CF00058874F83590162177307A1F4041715072A
:100D000044F4042715274027512758874F83042789
:100D100015272F813885021B130B0F5F1F4F21E012
:100D200030E015C04F81588540175107B9F4261798
:100D3000370734F4A626B726CA24DB24AC24BD2406
:100D400095012C193D092F5F3F4F01E010E04F81C5
:100D50005885B601C4010E94E905A0C0FC012681A6
:100D600037816217730724F06901F1E0CF1AD108C7
:100D7000F401808591854F8158854817590724F0E3
:100D8000FC013197F887EF83A216B30624F05901CE
:100D9000F1E0AF1AB108081719071CF08C010150D7
:100DA000110935016C187D0828012F813885421AF8
:100DB000530A77FE08C07194619471084FEF5FEF9A
:100DC0005A83498304C081E090E09A83898357FE67
:100DD00008C0519441945108EFEFFFEFFC83EB837F
:100DE00004C021E030E03C832B83A301440F551F56
:100DF0005E834D831201220C331C97014F8158856D
:100E0000B601C4010E94EB03461457041CF581018E
:100E100006191709CA14DB0409F440C017FD0CC0F9
:100E20008F819885EB81FC818E0F9F1F98878F8320
:100E30002D813E81021B130B49815A81C40ED51EA0
:100E4000020D131D97014F815885B601C4010E9400
:100E5000EB03E0CFAD80BE80A418B5088F819885E4
:100E600080179107D9F0B7FC06C089819A81C80E16
:100E7000D91EA218B308EF81F8852B813C81E20FBF
:100E8000F31FF887EF834D815E81A40EB51E970195
:100E9000AF01B601C4010E94EB03E0CF28960FB664
:100EA000F894DEBF0FBECDBFDF91CF911F910F91A0
:100EB000FF90EF90DF90CF90BF90AF909F908F907A
:100EC0007F906F905F904F903F902F9008951F926A
:100ED0000F920FB60F9211242F933F934F935F936E
:100EE0006F937F938F939F93AF93BF93EF93FF93F2
:100EF0008091B900887F803609F49CC068F58832FB
:100F000009F45BC090F4803109F454C038F48823AC
:100F100009F4F6C0883009F44DC0F6C0883109F4F0
:100F20004CC0803209F45DC0EFC0803409F468C061
:100F300048F4803309F455C0883309F0E5C0809344
:100F4000D101D8C0803509F44FC0883509F45DC09F
:100F5000883409F0D9C0D6C0883909F4C7C0A8F4CC
:100F6000883709F467C038F4883609F463C08037DD
:100F700009F460C0C9C0883809F4B8C0803909F4E0
:100F80005FC0803809F0C0C05BC0803B09F486C0F8
:100F900038F4803A09F466C0883A09F47FC0B4C0D6
:100FA000803C09F4A7C0883C09F4A4C0883B09F43C
:100FB0008AC0AAC08091CE0110C09091D0018091CA
:100FC000CF01981770F5E091D00181E08E0F8093EA
:100FD000D001F0E0E355FE4F80818093BB0085ECAB
:100FE00086C08093D1018EC0E091D00181E08E0F48
:100FF0008093D0018091BB00F0E0E355FE4F8083E9
:101000009091D0018091CF016EC0E091D00181E03C
:101010008E0F8093D0018091BB00F0E0E355FE4F2E
:1010200080838091D20181116DC081E08093CD01D8
:1010300084EA61C083E08093D30110928901CFCF0D
:1010400080918901803208F051C0E091890181E0EE
:101050008E0F809389018091BB00F0E0E759FE4F2D
:101060008083BDCF85EC8093BC001092D30180912A
:101070008901803230F4E0918901F0E0E759FE4FB8
:1010800010826091890170E0E0916701F091680140
:1010900089E691E009951092890136C084E0809339
:1010A000D3011092660110926501E0916301F09105
:1010B0006401099580916501811105C081E08093EB
:1010C000650110924301E091660181E08E0F8093EB
:1010D0006601F0E0ED5BFE4F80818093BB00909154
:1010E000660180916501981708F479CF85E88093AF
:1010F000BC000AC085EC8093BC001092D30104C0F0
:101100001092D1010E94B804FF91EF91BF91AF916D
:101110009F918F917F916F915F914F913F912F910F
:101120000F900FBE0F901F901895CF92DF92EF9205
:10113000FF920F931F93CF93DF936C017A018B0182
:10114000C0E0D0E0CE15DF0589F0D8016D918D01AA
:10115000D601ED91FC910190F081E02DC601099539
:10116000892B11F47E0102C02196ECCFC701DF91DB
:10117000CF911F910F91FF90EF90DF90CF90089546
:101180003FB7F8948091080290910902A0910A0259
:10119000B0910B0226B5A89B05C02F3F19F0019610
:1011A000A11DB11D3FBFBA2FA92F982F8827820FED
:1011B000911DA11DB11DBC01CD0142E0660F771F3D
:1011C000881F991F4A95D1F708955F9A08950E9444
:1011D000D110CF93DF931F92CDB7DEB7872F5F98E3
:1011E0002B9A2D989CB59F7B9CBD2D9A9CB59064A5
:1011F0009CBD69830E94E2052B9A2D989CB59F7B2C
:101200009CBD2D9A9CB590649CBD6981862F0E94DF
:10121000E2055F9A0F90DF91CF910895CF93DF930E
:101220001F92CDB7DEB7872F2B9A2D989CB59F7B49
:101230009CBD2D9A9CB590649CBD69830E94E2057B
:101240002B9A2D989CB59F7B9CBD2D9A9CB5906444
:101250009CBD6981862F0F90DF91CF910C94E205A0
:101260004F925F926F927F928F929F92AF92BF92B6
:10127000CF92EF92FF920F931F93CF93DF935C0176
:10128000CB014A0138012701E90129912223A1F06C
:10129000D501ED91FC910684F785E02D32E0C32E57
:1012A00072018301A401BC01C5010995F5012681E4
:1012B0003781281739074CF7DF91CF911F910F9194
:1012C000FF90EF90CF90BF90AF909F908F907F90C6
:1012D0006F905F904F9008952F923F924F925F9240
:1012E0006F927F928F929F92AF92BF92CF92DF9236
:1012F000EF92FF920F931F93CF93DF93CDB7DEB79B
:1013000060970FB6F894DEBF0FBECDBF988B8F8766
:101310005B016A017A0102E310E022EB30E0AB01ED
:1013200067E470E00E94E905C5010A969C838B83FF
:101330000EE110E02BE030E0AC016CE370E08F8553
:1013400098890E94E9052BE030E04B815C8169EFD0
:1013500070E08F8598890E94E905F501B796FA87B4
:10136000E98786EF682E77247A949AE0492E512CEB
:10137000212C312C8B819C819C878B87FE87ED876C
:10138000AB84BC84A218B3087601850126E430E062
:10139000A501E6E4F0E0E419F509FE83ED83BF0161
:1013A0008F8598890E945C0686E490E082199309F3
:1013B00098878F838B809C8084189508840126E40D
:1013C00030E0A401BC018F8598890E945C068501EC
:1013D00029EF30E0A501520199EFA90EB11CB5012A
:1013E0008F8598890E945C06F101E750FF4FFA83D0
:1013F000E983840129EF30E0A401BF018F8598893A
:101400000E945C068D849E84820C931C840129EFCB
:1014100030E0A401B5018F8598890E945C06A984FB
:10142000BA84A40CB51C850129EF30E0A5016981BF
:101430007A818F8598890E945C06840126E430E0D9
:10144000A4016D817E818F8598890E945C0685014B
:1014500026E430E0A5016F8178858F8598890E9408
:101460005C06C1010196260C371C3101680E791EFD
:1014700077FC09C0F1E04F1A510813012418350810
:101480003101641875081C01481659060CF078CF14
:1014900060960FB6F894DEBF0FBECDBFDF91CF913F
:1014A0001F910F91FF90EF90DF90CF90BF90AF9082
:1014B0009F908F907F906F905F904F903F902F9074
:1014C000089590E0FC01E75CFB4F3491FC01EB5D7B
:1014D000FB4F2491FC01EF5EFB4FE491EE2309F4F6
:1014E0003BC0332339F1333091F038F43130A9F077
:1014F000323001F584B58F7D12C0373091F038302D
:10150000A1F03430B9F4809180008F7D03C08091C8
:1015100080008F77809380000DC084B58F7784BD65
:1015200009C08091B0008F7703C08091B0008F7D9B
:101530008093B000F0E0EE0FFF1FE95FFB4FA59135
:10154000B4918FB7F894EC91611103C020952E23CC
:1015500001C02E2B2C938FBF0895CF93DF9390E083
:10156000FC01EB5DFB4F2491FC01EF5EFB4F84918E
:10157000882361F190E0880F991FFC01E350FC4F34
:10158000C591D491FC01E95FFB4FA591B491611124
:1015900009C09FB7F8948881209582238883EC91B5
:1015A0002E230BC0623061F49FB7F8943881822FEC
:1015B000809583238883EC912E2B2C939FBF06C0AC
:1015C0008FB7F894E8812E2B28838FBFDF91CF91BE
:1015D00008958F929F92AF92BF92CF92DF92EF9237
:1015E000FF926B017C010E94C0084B015C01C11499
:1015F000D104E104F104F1F00E94C008DC01CB0148
:1016000088199909AA09BB09883E9340A105B1052B
:1016100070F321E0C21AD108E108F10888EE880EC3
:1016200083E0981EA11CB11CC114D104E104F10493
:1016300019F7DDCFFF90EF90DF90CF90BF90AF9084
:101640009F908F9008951F920F920FB60F921124C2
:101650002F933F938F939F93AF93BF9380910402F7
:1016600090910502A0910602B09107023091030209
:1016700023E0230F2D3720F40196A11DB11D05C0D5
:1016800026E8230F0296A11DB11D2093030280932B
:10169000040290930502A0930602B0930702809182
:1016A000080290910902A0910A02B0910B020196E2
:1016B000A11DB11D8093080290930902A0930A0214
:1016C000B0930B02BF91AF919F918F913F912F915A
:1016D0000F900FBE0F901F901895CF93C62F81E0EB
:1016E00080938A0182E58093020210928B0110920E
:1016F000AC01642F86EF91E00E9446056C2F86EFC7
:1017000091E00E9446058091AC01813208F045C00D
:101710009091D3019111FCCF92E09093D30191E08D
:101720009093D2019FEF9093D1011092D0018093BA
:10173000CF01ACE8B1E02DEA31E0F9019E2F921B18
:10174000981718F49D919193F9CF1092CE01809142
:10175000CE01846A8093CE018091CD01813061F405
:101760001092CD018091CE018093BB008091BC008E
:1017700083FDF8CF85EC01C085EE8093BC0080919D
:10178000D3018230E1F38091D1018F3F31F080911C
:10179000D101803211F08091D10110928B01109211
:1017A000AC0110928A018FE39CE90197F1F700C028
:1017B0000000CF910895CF92DF92FF920F931F9375
:1017C000CF93DF93CDB7DEB72C970FB6F894DEBF7B
:1017D0000FBECDBF8C018091D3018111FCCF81E080
:1017E0008093D3018093D2019FEF9093D101109207
:1017F000D00195E09093CF018093CE018091CE01EE
:10180000846A8093CE018091CD01813061F4109281
:10181000CD018091CE018093BB008091BC0083FDFF
:10182000F8CF85EC01C085EE8093BC008091D30198
:101830008130E1F38091D001863018F4F090D0012E
:1018400002C036E0F32EADEAB1E024ED31E0F9015B
:101850008E2F821B8F1518F48D918193F9CF1092E2
:10186000F401F092F501CE0101966C018091F40132
:10187000F81649F086EF91E00E94FA04F601819390
:1018800091936F01F3CF8981F80182838B818383E8
:101890008B859C859C013595279535952795422FFD
:1018A00043702D813E81220F331F220F331F242BC3
:1018B00024839C0164E0359527956A95E1F7422FD2
:1018C00043702F813885220F331F220F331F242BA3
:1018D00025839C01A6E035952795AA95E1F7422F2F
:1018E000437029853A85220F331F220F331F242B83
:1018F00026839C0121703327F1E02F27F8012083F4
:1019000096958795F1E08F278170F801818340E0FB
:1019100060E0C8010E946D0BF801228130E08781F0
:1019200090E0A901481B590B4630510514F082E0A4
:1019300006C0821B930B069724F081E0F801818793
:1019400002C0F8011186F801238130E0808590E023
:10195000A901481B590B4630510514F083E006C01D
:10196000821B930B06971CF084E0F8018187F80135
:1019700081852C960FB6F894DEBF0FBECDBFDF91E8
:10198000CF911F910F91FF90DF90CF900895862FF8
:101990005F982B9A2D989CB59F7B9CBD2D9A9CB5EA
:1019A00090649CBD0E94E2055F9A0895862F5F981F
:1019B0002B982D989CB59F7B9CBD2D9A9CB59064CF
:1019C0009CBD0E94E2055F9A08956CE20E94D60CCD
:1019D0005F980895AF92BF92CF92DF92EF92FF92FD
:1019E0000F931F93CF93DF93EC015B017A016901A1
:1019F0006AE20E94D60CB501CE010E94E908B60148
:101A0000CE010E94E9086BE2CE010E94D60CB7011C
:101A1000CE010E94E908B801CE01DF91CF911F915C
:101A20000F91FF90EF90DF90CF90BF90AF900C940C
:101A3000E908E6EFF1E01382128288EE93E0A0E07D
:101A4000B0E084839583A683B78380E291E091839D
:101A500080830895789484B5826084BD84B5816064
:101A600084BD85B5826085BD85B5816085BD809169
:101A70006E00816080936E001092810080918100E1
:101A800082608093810080918100816080938100D9
:101A9000809180008160809380008091B10084609B
:101AA0008093B1008091B00081608093B0008091FC
:101AB0007A00846080937A0080917A0082608093BB
:101AC0007A0080917A00816080937A0080917A0018
:101AD000806880937A001092C10081E490E00E94B7
:101AE000A40FEC011B821A821D821C8280E491E00B
:101AF0009F838E8380EF90E0998788871F861E865C
:101B00001D861C861B861A861F8A1E8A1D8A1C8AB1
:101B10001B8A1A8A198A188A18AA19AA1AAA1BAA29
:101B200081E08CAB8DAB1FAA1EAA8FEF9FEF99AF00
:101B300088AF1FAE1EAE1DAE1CAE1BAE1AAE8AE045
:101B400091E09983888361E088E00E94AD0A28983B
:101B500061E089E00E94AD0A61E087E00E94AD0A81
:101B600061E08DE00E94AD0A61E08BE00E94AD0A69
:101B700060E08CE00E94AD0A29985F9A61E086E0FF
:101B80000E94AD0A5E9AFE01E05CFF4F10828CB5A8
:101B9000837F8CBD8CB58F7D8CBD1FB7F8948091F1
:101BA0004101811127C0EBE1F4E08491EFE2F4E020
:101BB0009491E82FF0E0EE0FFF1FE350FC4FA5914A
:101BC000B491EC91E92321F461E08AE00E94610A7A
:101BD00061E08AE00E94AD0A8CB580618CBD8CB555
:101BE00080648CBD61E08DE00E94AD0A61E08BE015
:101BF0000E94AD0A809141018F5F809341011FBF18
:101C00008CB58C7F81608CBD8DB581608DBD5F9AF8
:101C1000289862E370E080E090E00E94E90A289A48
:101C200068E770E080E090E00E94E90AE8E6F0E012
:101C30007F012FEFE21AF20A64916F3FA1F1862F24
:101C4000807C8038B1F0803C39F1803411F0F701AC
:101C5000EFCF162F1F736F01B12EFFEFCF1ADF0AE0
:101C6000BB20B9F0F6016491CE010E94D60CBA9463
:101C7000F4CF162F1F736F01B12EFFEFCF1ADF0ABB
:101C8000BB2039F0F6016491CE010E94C70CBA94D2
:101C9000F4CFE10EF11CDBCF6F7370E080E090E0D9
:101CA0000E94E90AD4CF60E070E0CE010E942904CE
:101CB0008CB58C7F8CBD8DB58E7F8DBD61E089E04C
:101CC0000E94AD0AE2E4F4E0E491E33019F150F44B
:101CD000E130D1F0E230E1F584B5806284BD8FE778
:101CE00088BD3AC0E73011F1E83049F1E43081F5C0
:101CF000809180008062809380008FE790E09093D5
:101D00008B0080938A0028C084B5806884BD8FE7EB
:101D100087BD22C0809180008068809380008FE71B
:101D200090E0909389008093880016C08091B00065
:101D300080688093B0008FE78093B3000DC08091DE
:101D4000B00080628093B0008FE78093B40004C03D
:101D500060E089E00E94610A8AE090E00E94A40F9E
:101D60006C01FC0111861092F4011092F5011092A1
:101D70008B011092AC011092D30181E08093D201CB
:101D80001092CD0161E082E10E94610A61E083E18D
:101D90000E94610A8091B9008E7F8093B900809182
:101DA000B9008D7F8093B90088E48093B80085E402
:101DB0008093BC0040EF65E5C6010E946D0B4BEFC0
:101DC00060E0C6010E946D0BFFEF21EE84E0F15050
:101DD00020408040E1F700C00000C6010E94DB0BFC
:101DE000C6010E94DB0BF601828187838381808795
:101DF0008824839442E0742E809142018111FECFA9
:101E000087E090E00E94A40F5C01FC0114828582AF
:101E10001682D182C082D383C28360EE7FEFCE016F
:101E20000E942904C6010E94DB0BF60181858330E4
:101E300019F4F501148204C0843011F4F501848290
:101E4000F50194808581891509F451C0992029F103
:101E5000F1E09F124CC04FE150E066E970E0CE0126
:101E60000E946C098FE1E82EF12C00E01CEF2CE2BF
:101E700031E04AEA50E069E670E0CE010E943009A4
:101E800040E05CEF68E270E0CE010E946C09E12C5A
:101E90009CEFF92E0FE110E021C040E05CEF66E915
:101EA00070E0CE010E946C09E12C2CEFF22E0FE1C4
:101EB00010E02CE231E04AEA50E069E670E0CE0141
:101EC0000E9430094FE150E068E270E0CE010E94CC
:101ED0006C093FE1E32EF12C00E01CEF24E331E03C
:101EE0004CE350E060E570E0CE010E943009F5015E
:101EF0009582F6018081882351F0992031F0F1E03C
:101F00009F1205C0F501768202C0F5018682F501B7
:101F10008681882309F486CF809342016DCF0E9489
:101F2000D610332312F48A1B9B0B0C94990F0E943A
:101F3000D610B7FF0895821B930B0895EE0FFF1F75
:101F40000590F491E02D0994CF93DF9382309105B1
:101F500010F482E090E0E0910E02F0910F0220E098
:101F600030E0C0E0D0E0309711F140815181481756
:101F70005907C0F04817590761F48281938120976F
:101F800019F09B838A832BC090930F0280930E02DB
:101F900026C02115310519F04217530718F49A018C
:101FA000BE01DF01EF010280F381E02DDCCF2115BE
:101FB000310509F1281B390B2430310590F41296B4
:101FC0008D919C9113976115710521F0FB0193830D
:101FD000828304C090930F0280930E02FD0132961B
:101FE00044C0FD01E20FF31F819391932250310908
:101FF0002D933C933AC020910C0230910D02232B7B
:1020000041F4209102013091030130930D0220939D
:102010000C0220910001309101012115310541F49C
:102020002DB73EB74091040150910501241B350B9B
:10203000E0910C02F0910D02E217F307A0F42E1BC1
:102040003F0B2817390778F0AC014E5F5F4F24171C
:10205000350748F04E0F5F1F50930D0240930C025E
:102060008193919302C0E0E0F0E0CF01DF91CF9146
:1020700008950F931F93CF93DF93009709F48CC0BB
:10208000FC0132971382128200910E0210910F020E
:102090000115110581F420813181820F931F209158
:1020A0000C0230910D022817390779F5F0930D02D3
:1020B000E0930C0271C0D80140E050E0AE17BF07BA
:1020C00050F412962D913C911397AD0121153105D5
:1020D00009F1D901F3CF9D01DA01338322836081B5
:1020E0007181860F971F8217930769F4EC0128818D
:1020F0003981260F371F2E5F3F4F318320838A811E
:102100009B8193838283452B29F4F0930F02E09304
:102110000E0242C01396FC93EE931297ED01499183
:1021200059919E01240F351FE217F30771F4808146
:102130009181840F951F029611969C938E938281B4
:10214000938113969C938E931297E0E0F0E0D80170
:1021500012968D919C911397009719F0F8018C01BC
:10216000F6CF8D919C9198012E5F3F4F820F931F68
:1021700020910C0230910D022817390769F430972D
:1021800029F410920F0210920E0202C013821282E2
:1021900010930D0200930C02DF91CF911F910F91CC
:1021A000089581E090E0F8940C94E510A29FB001AE
:1021B000B39FC001A39F700D811D1124911DB29F7B
:0E21C000700D811D1124911D0895F894FFCF1C
:1021CE000000100280000000000052029508750504
:1021DE00EA0CE50C0E09E508D002BE020000000074
:1021EE00460516050E05FA04EB04EA044F707469F1
:1021FE006F6E730053746172742047616D650000D9
:00000001FF
