:100000000C9428020C9450020C9450020C94500250
:100010000C9450020C9450020C9450020C94500218
:100020000C9450020C9450020C9450020C94500208
:100030000C9450020C9450020C9450020C945002F8
:100040000C948E0C0C9450020C949A0B0C94740B20
:100050000C9450020C9450020C9450020C945002D8
:100060000C94DA050C9450024128D441CF830083CC
:100070003041ED846403128141E88385017941CBED
:1000800085392C00340241F7812041EA8200004189
:10009000C0812641C1811141C582353E41C781BE23
:1000A00041B182001B41F281084126810141E08F6C
:1000B0001F1A180A0F064587320A07020705004172
:1000C000E18F0025270510093A784D05180D383ABB
:1000D0001F41B6840A82270041B78107413A815502
:1000E000413681E8412A82000082013F412B820093
:1000F000008200EF4111FCFC4129D4FFFF00000009
:10010000000000000030787830300030006C6C6CFB
:1001100000000000006C6CFE6CFE6C6C00307CC05B
:10012000780CF8300000C6CC183066C600386C3841
:1001300076DCCC76006060C0000000000018306003
:100140006060301800603018181830600000663C9D
:10015000FF3C660000003030FC3030000000000042
:100160000000703060000000FC0000000000000093
:100170000000303000060C183060C0800078CCDC05
:10018000FCECCC780030F030303030FC0078CC0C17
:100190003860CCFC0078CC0C380CCC78001C3C6C63
:1001A000CCFE0C0C00FCC0F80C0CCC78003860C005
:1001B000F8CCCC7800FCCC0C183060600078CCCC4B
:1001C00078CCCC780078CCCC7C0C18700000003057
:1001D0003000303000000030300070306018306087
:1001E000C0603018000000FC00FC00000060301807
:1001F0000C1830600078CC0C18300030007CC6DE63
:10020000DEDEC078003078CCCCFCCCCC00FC66665E
:100210007C6666FC003C66C0C0C0663C00FC6C6648
:1002200066666CFC00FE6268786862FE00FE6268CA
:10023000786860F0003C66C0C0CE663E00CCCCCC96
:10024000FCCCCCCC0078303030303078001E0C0C38
:100250000CCCCC7800E6666C786C66E600F06060EA
:10026000606266FE00C6EEFED6C6C6C600C6E6F6EC
:10027000DECEC6C600386CC6C6C66C3800FC6666E4
:100280007C6060F00078CCCCCCDC781C00FC66662E
:100290007C786CE60078CCE0381CCC7800FCB4307C
:1002A0003030307800CCCCCCCCCCCCFC00CCCCCC1E
:1002B000CCCC783000C6C6C6D6FEEEC600C6C66C2C
:1002C000386CC6C600CCCCCC7830307800FECC98E8
:1002D0003062C6FE007860606060607800C06030A8
:1002E000180C060200781818181818780010386CC6
:1002F000C60000000000000000000000FF303018C1
:1003000000000000000000780C7CCC7600E0607CEF
:10031000666666BC00000078CCC0CC78001C0C0C73
:100320007CCCCC7600000078CCFCC07800386C60C7
:10033000F06060F000000076CCCC7C0CF8E0606CE3
:10034000766666E60030007030303078001800784D
:10035000181818D870E060666C786CE60070303061
:1003600030303078000000ECFED6C6C6000000F841
:10037000CCCCCCCC00000078CCCCCC78000000DC1D
:1003800066667C60F0000076CCCC7C0C1E0000D849
:100390006C6C60F00000007CC0780CF80010307CC1
:1003A00030303418000000CCCCCCCC76000000CC2F
:1003B000CCCC7830000000C6C6D6FE6C000000C66B
:1003C0006C386CC6000000CCCCCC7C0CF80000FC77
:1003D000983064FC001C3030E030301C00181818D5
:1003E0000018181800E030301C3030E00076DC00D7
:1003F000000000000010386CC6C6C6FE00000000F9
:1004000000240027002A0000000000250028002BFF
:1004100000040404040404040402020202020203AD
:1004200003030303030102040810204080010204B7
:10043000081020010204081020000000080002013A
:1004400000000304070000000000000000007E1010
:1004500011241FBECFEFD8E0DEBFCDBF11E0A0E07A
:10046000B1E0EEECF2E202C005900D92A23DB107C0
:10047000D9F724E0A2EDB1E001C01D92AD33B2077F
:10048000E1F712E0C8E2D2E004C02197FE010E9429
:100490004B11C732D107C9F70E94200D0C9465118A
:1004A0000C940000CF92EF92FF920F931F93CF9383
:1004B000DF93EC01262F6A3081F48EAD9FAD9BAFA8
:1004C0008AAF2CA92F778CAD9DAD38E0239F800D8E
:1004D000911D11249DAF8CAF47C0862F8B7F893033
:1004E00009F442C06AAD7BAD203219F46115710583
:1004F000D9F1E881F981E8ACF9AC0EA91FA94CAD9E
:100500005DAD0088F189E02DCCA8CE010995BC0134
:100510009BAF8AAF8DA9882339F12CA92F77822F21
:1005200090E048EF4203900111244E815F81420F19
:10053000531F46175707C4F44EAD5FAD5BAF4AAFCC
:1005400043E0880F991F4A95E1F74CAD5DAD840FEC
:10055000951F9DAF8CAF48855985240F351F2817EF
:10056000390714F41DAE1CAE81E090E0DF91CF910D
:100570001F910F91FF90EF90CF900895CF92EF923F
:10058000FF920F931F93DC01ED91FC910684F78598
:10059000E02D09951F910F91FF90EF90CF90089556
:1005A0002F923F924F925F926F927F928F929F9283
:1005B000AF92BF92CF92DF92EF92FF920F931F9371
:1005C000CF93DF9300D01F92CDB7DEB79B838A8392
:1005D000480188E0280290011124D901A350B040BD
:1005E0005D01BC2DBF77CB2EEA81FB81868197818F
:1005F000F1E0FB1708F463C06B0128E0C20ED11CC8
:100600008C159D050CF46EC0AA81BB811896ED91E6
:10061000FC9119979A01285F3F4FE217F3070CF4FA
:1006200061C0AA81BB81ED91FC9111978A01095F9C
:100630001F4F9B01295F3F4F0680F781E02DCD01C1
:100640000995AA81BB81ED91FC9111970084F185F8
:10065000E02DCD0109958501085F1F4FF5014490FC
:10066000FFEFAF1ABF0A98E0692E712C20E8522ED6
:10067000AA81BB81ED91FC911197852D8421028483
:10068000F385E02D882319F0B401CD0103C0B70133
:100690008A819B8109955694B1E06B1A710841F7E4
:1006A000A016B106D9F6AA81BB81ED91FC911197F4
:1006B0000484F585E02DCD010995C60176C0B8E02A
:1006C000CB9E800111243B01600E711E861597059B
:1006D0004CF0040F151FEA81FB812085318520171E
:1006E000310714F4019661C0AA81BB81ED91FC91A0
:1006F0001197015011090680F781E02D93012150D7
:100700003109CD010995AA81BB81ED91FC91119729
:100710000084F185E02DCD0109952501B8E04B0E4F
:10072000511CF5012490FFEFAF1ABF0A3C2C08E0E2
:1007300010E080E8D82E8D2D82212C2DA1F0AA81E9
:10074000BB81ED91FC9111970284F385E02DB401FA
:10075000CD01298309952981215089F7D69401502B
:10076000110949F710C0AA81BB81ED91FC91119745
:100770000284F385E02DB701CD01298309952981F4
:10078000215089F7EBCF3A943110D1CFA414B5049E
:1007900009F0C7CFAA81BB81ED91FC911197048428
:1007A000F585E02DCD010995C3010F900F900F90B5
:1007B000DF91CF911F910F91FF90EF90DF90CF903D
:1007C000BF90AF909F908F907F906F905F904F9071
:1007D0003F902F90089585ED8093BC008091BC00E0
:1007E00084FDFCCF1092630208954091F601262FFC
:1007F00030E0240F311D21323105DCF420916302F9
:100800002430C9F4FC0180E090E0861758F4309160
:10081000F6012191DC01AC52BE4FA30FB11D2C9308
:100820000196F3CF8091F601680F6093F60180E0A6
:10083000089581E0089582E008950895E0911C02F2
:1008400080911B02E81730F4F0E0E35EFD4F8081F9
:1008500090E008958FEF9FEF089590911C02809192
:100860001B02981750F4E92FF0E0E35EFD4F208162
:1008700030E09F5F90931C0202C02FEF3FEFC90151
:10088000089580911B0290E020911C02821B910927
:100890000895CF92DF92EF92FF920F931F93CF9321
:1008A000DF937C01262F972F8A018091860288236F
:1008B00091F0C62FD72F6E01C40ED51ECC15DD05C5
:1008C00071F06991D701ED91FC910190F081E02DDB
:1008D000C7010995F3CF642F822F0E94F503C80149
:1008E000DF91CF911F910F91FF90EF90DF90CF900C
:1008F0000895CF93DF931F92CDB7DEB76983209120
:1009000086022223D1F020918402203240F021E09F
:1009100030E0FC013383228380E090E015C08091B9
:100920008502E82FF0E0EC59FD4F998190838F5FAD
:10093000809385028093840205C061E0CE01019618
:100940000E94F50381E090E00F90DF91CF91089530
:10095000AF92BF92CF92DF92EF92FF920F931F93CD
:10096000CF93DF93EC015B017A0169016AE20E9497
:100970000C0DB501CE010E94E70CB601CE010E941C
:10098000E70C6BE2CE010E940C0DB701CE010E9474
:10099000E70CB801CE01DF91CF911F910F91FF902D
:1009A000EF90DF90CF90BF90AF900C94E70C0F9337
:1009B0001F93CF93DF93EC016930710519F06A350D
:1009C000710571F48AE590E09D838C8380EF90E05F
:1009D0009F838E8380E491E09987888718E434C0F0
:1009E0006231710519F0643B710571F484EB90E09C
:1009F0009D838C8380E491E09F838E8380EF90E0E1
:100A00009987888718E320C06B31710521F07E7FBC
:100A10006E30710571F48EE091E09D838C8380EFE0
:100A200090E09F838E8380E491E09987888718E81F
:100A30000BC01D821C8280E491E09F838E8380EF37
:100A400090E09987888718EE66E3CE010E940C0D2E
:100A5000612FCE010E94D80CE881F98108851985A3
:100A6000015011092E813F81215031090680F78103
:100A7000E02D40E050E060E070E0CE010995DF91AC
:100A8000CF911F910F9108958EBD00000DB407FE08
:100A9000FDCF8EB508958F929F92AF92BF92EF9245
:100AA000FF920F931F93CF93DF93EC017B01E881BB
:100AB000F98108851985015011092E813F81215046
:100AC00031090680F781E02D40E050E060E070E001
:100AD0000995E881F9810084F185E02DCE01099521
:100AE000AE81BF81288539850E943C114B015C0194
:100AF00083E0B694A794979487948A95D1F7E88178
:100B0000F98181149104A104B10409F444C0028460
:100B1000F385E02DB701CE010995E881F9810284C2
:100B2000F385E02DB701CE010995E881F9810284B2
:100B3000F385E02DB701CE010995E881F9810284A2
:100B4000F385E02DB701CE010995E881F981028492
:100B5000F385E02DB701CE010995E881F981028482
:100B6000F385E02DB701CE010995E881F981028472
:100B7000F385E02DB701CE010995E881F981028462
:100B8000F385E02DB701CE01099581E0881A91081F
:100B9000A108B108B4CF0484F585E02DCE01DF9122
:100BA000CF911F910F91FF90EF90BF90AF909F90CA
:100BB0008F9009941F920F920FB60F9211242F93CA
:100BC0003F934F935F936F937F938F939F93AF93D5
:100BD000BF93EF93FF938091B900887F803609F42B
:100BE0009CC068F5883209F45BC090F4803109F448
:100BF00054C038F4882309F4F6C0883009F44DC095
:100C0000F6C0883109F44CC0803209F45DC0EFC0F1
:100C1000803409F468C048F4803309F455C088333F
:100C200009F0E5C080936102D8C0803509F44FC057
:100C3000883509F45DC0883409F0D9C0D6C0883938
:100C400009F4C7C0A8F4883709F467C038F48836B7
:100C500009F463C0803709F460C0C9C0883809F45A
:100C6000B8C0803909F45FC0803809F0C0C05BC0EB
:100C7000803B09F486C038F4803A09F466C0883AAB
:100C800009F47FC0B4C0803C09F4A7C0883C09F4D3
:100C9000A4C0883B09F48AC0AAC080913E0210C05B
:100CA0009091600280915F02981770F5E091600268
:100CB00081E08E0F80936002F0E0E15CFD4F808167
:100CC0008093BB0085EC86C0809361028EC0E0916A
:100CD000600281E08E0F809360028091BB00F0E0A3
:100CE000E15CFD4F80839091600280915F026EC055
:100CF000E091600281E08E0F809360028091BB00E2
:100D0000F0E0E15CFD4F80838091620281116DC053
:100D100081E080933D0284EA61C083E080936302B6
:100D200010921A02CFCF80911A02803208F051C07F
:100D3000E0911A0281E08E0F80931A028091BB002D
:100D4000F0E0E650FE4F8083BDCF85EC8093BC0081
:100D50001092630280911A02803230F4E0911A02FC
:100D6000F0E0E650FE4F108260911A0270E0E091D0
:100D7000F801F091F9018AEF91E0099510921A02B9
:100D800036C084E0809363021092F7011092F6015E
:100D9000E091F401F091F50109958091F60181113E
:100DA00005C081E08093F6011092D401E091F70133
:100DB00081E08E0F8093F701F0E0EC52FE4F8081CE
:100DC0008093BB009091F7018091F601981708F489
:100DD00079CF85E88093BC000AC085EC8093BC0085
:100DE0001092630204C0109261020E94EB03FF9113
:100DF000EF91BF91AF919F918F917F916F915F9193
:100E00004F913F912F910F900FBE0F901F9018950B
:100E1000FC01918D828D981761F0828DDF01A80F02
:100E2000B11D5D968C91928D9F5F9F73928F90E024
:100E300008958FEF9FEF0895FC01918D828D981793
:100E400031F0828DE80FF11D858D90E008958FEFD0
:100E50009FEF0895FC01918D228D892F90E0805C99
:100E60009F4F821B91098F7399270895FC01848DF0
:100E7000DF01A80FB11DA35ABF4F2C91848D90E0C4
:100E800001968F739927848FA689B7892C93A0899F
:100E9000B1898C9180648C93938D848D981306C056
:100EA0000288F389E02D80818F7D80830895EF9201
:100EB000FF920F931F93CF93DF93EC0181E0888F14
:100EC0009B8D8C8D981305C0E889F989808185FDFB
:100ED00024C0F62E0B8D10E00F5F1F4F0F731127EC
:100EE000E02E8C8DE8120CC00FB607FCFACFE88913
:100EF000F989808185FFF5CFCE010E943607F1CFB9
:100F00008B8DFE01E80FF11DE35AFF4FF0820B8F2E
:100F1000EA89FB898081806207C0EE89FF8960834E
:100F2000E889F98980818064808381E090E0DF91A5
:100F3000CF911F910F91FF90EF900895CF93DF9382
:100F4000EC01888D8823C9F0EA89FB89808185FDC1
:100F500005C0A889B9898C9186FD0FC00FB607FC22
:100F6000F5CF808185FFF2CFA889B9898C9185FF63
:100F7000EDCFCE010E943607E7CFDF91CF910895E4
:100F8000CF92DF92EF92FF920F931F93CF93DF9355
:100F90006C017A018B01C0E0D0E0CE15DF0589F04D
:100FA000D8016D918D01D601ED91FC910190F081F8
:100FB000E02DC6010995892B11F47E0102C021960E
:100FC000ECCFC701DF91CF911F910F91FF90EF9070
:100FD000DF90CF9008953FB7F894809138049091B6
:100FE0003904A0913A04B0913B0426B5A89B05C0F2
:100FF0002F3F19F00196A11DB11D3FBFBA2FA92F98
:10100000982F8827820F911DA11DB11DBC01CD0114
:1010100042E0660F771F881F991F4A95D1F7089500
:101020005F9A08950E945111CF93DF931F92CDB71D
:10103000DEB7872F2B9A2D989CB59F7B9CBD2D9A50
:101040009CB590649CBD69830E9444052B9A2D98A1
:101050009CB59F7B9CBD2D9A9CB590649CBD69817D
:10106000862F0F90DF91CF910C9444058F929F9221
:10107000AF92BF92CF92DF92EF92FF920F931F93A6
:10108000CF93DF93EA01790168014091AC0350915D
:10109000AD038417950714F0CA0101972091AE03A0
:1010A0003091AF03621773071CF0B90161507109E9
:1010B000FC01EC0FFD1FE417F5071CF0EA01C81B4B
:1010C000D90BAB014E0D5F1D421753071CF0790180
:1010D000E61AF70AE091A603F091A7038B010E0D23
:1010E0001F1D015011099C012C0F3D1F215031097A
:1010F0000680F781E02DAB01BC0186EA93E00995FB
:10110000E091A603F091A7030084F185E02D86EA23
:1011100093E009959701DE010E943C114B015C01AF
:10112000E091A603F091A70381149104A104B104F6
:1011300069F00284F385E02DB60186EA93E0099513
:1011400081E0881A9108A108B108EACF0484F585E6
:10115000E02D86EA93E0DF91CF911F910F91FF90F0
:10116000EF90DF90CF90BF90AF909F908F900994B9
:10117000CF93C82F81E08093860282E580933C0460
:10118000109285021092840287E393E00E94790412
:101190006C2F87E393E00E9479048091840281326E
:1011A00008F045C0909163029111FCCF92E09093BA
:1011B000630291E0909362029FEF9093610210921C
:1011C000600280935F02A4E6B2E02FE332E0F9010F
:1011D0009E2F921B981718F49D919193F9CF10921E
:1011E0003E0280913E02846A80933E0280913D02DD
:1011F000813061F410923D0280913E028093BB00E9
:101200008091BC0083FDF8CF85EC01C085EE809312
:10121000BC00809163028230E1F3809161028F3FD4
:1012200031F080916102803211F080916102109260
:10123000850210928402109286028FE39CE9019746
:10124000F1F700C00000CF910895EF92FF921F9335
:10125000CF93DF93CDB7DEB72C970FB6F894DEBFF0
:101260000FBECDBF809163028111FCCF81E08093DE
:101270006302809362029FEF90936102109260027A
:1012800095E090935F0280933E0280913E02846AD3
:1012900080933E0280913D02813061F410923D02C4
:1012A00080913E028093BB008091BC0083FDF8CF0B
:1012B00085EC01C085EE8093BC0080916302813093
:1012C000E1F380916002863018F41091600201C051
:1012D00016E0AFE3B2E02DE132E0F9018E2F821B80
:1012E000811718F48D918193F9CF10921C021093FD
:1012F0001B02CE0101967C0180911C02181749F057
:1013000087E393E00E942D04F701819391937F017D
:10131000F3CF89819A8190938C0280938B028B8189
:101320009C8190938E0280938D028B859C859C017D
:101330003595279535952795A901437055272D811A
:101340003E81220F331F220F331F242B352B309366
:10135000900220938F029C0174E0359527957A9531
:10136000E1F7A901437055272F813885220F331FDC
:10137000220F331F242B352B30939202209391029E
:101380009C01F6E035952795FA95E1F7A9014370A0
:10139000552729853A85220F331F220F331F242B0F
:1013A000352B30939402209393029C0121703327B4
:1013B000F1E02F27309388022093870221E030E06C
:1013C00081FF02C020E030E030938A02209389023E
:1013D00060E080E00E94B80820918B0230918C027E
:1013E0008091950290919602A901481B590B4630B5
:1013F000510514F082E005C0821B930B069724F080
:1014000081E08093990202C01092990220918D028E
:1014100030918E028091970290919802A901481B09
:10142000590B4630510514F083E005C0821B930B25
:1014300006971CF084E080939902809199022C9683
:101440000FB6F894DEBF0FBECDBFDF91CF911F91D5
:10145000FF90EF9008955F926F927F928F929F928C
:10146000AF92BF92CF92DF92EF92FF920F931F93B2
:10147000CF93DF93CDB7DEB7C356D1090FB6F8943B
:10148000DEBF0FBECDBFFC01228133813093A903A3
:101490002093A803248135813093AB032093AA03C2
:1014A000268137813093AD032093AC0320853185AD
:1014B0003093AF032093AE03228533853093B1037D
:1014C0002093B003248535853093B3032093B20372
:1014D000268537853093B5032093B403208931895D
:1014E0003093B7032093B603228933893093B9032D
:1014F0002093B803248935893093BB032093BA0322
:10150000268937893093BD032093BC032CE178965C
:10151000AEEBB3E001900D922A95E1F7FC0124A90E
:101520002093DA0325A92093DB0326A937A930935A
:10153000DD032093DC0320AD31AD3093DF03209336
:10154000DE0322AD33AD3093E1032093E00324ADFD
:1015500035AD3093E3032093E20326AD37AD3093EE
:10156000E5032093E403E05CFF4F80818093E60372
:1015700083E6E0E0F1E0DE01119601900D928A959C
:10158000E1F720E030E080E090E0AC01420F531F33
:10159000FA01ED5BFC4FA1E0B0E0AC0FBD1FA40F62
:1015A000B51F4C91408301968B30910571F7255FF3
:1015B0003F4F2336310539F76DEC74EA86EA93E044
:1015C0000E944B0504E419E228ED30E048E051E0C8
:1015D0006DE070E080E390E00E94360893E4892E8D
:1015E00093E0992E512C2DE0C22ED12C80E3E82ED1
:1015F000F12CA12CB12C34016A0C7B1CF3018081ED
:101600008230A9F028F4813069F50DEC14EA11C09C
:101610008330C1F0843031F500E018EF28E130E08C
:1016200048E150E0B601C7010E94360819C00DE636
:101630001BEA28E130E048E150E0B601C7010E9412
:10164000360810C000E018EF28E130E048E150E033
:10165000B601C7010E9436085092E703A092E80342
:10166000F3011082F8E1EF0EF11C8FEFA81AB80A0F
:10167000E8E3EE16E1E0FE0609F0BDCFF8E1CF0E9B
:10168000D11C8BE0880E911C5394E9E05E12AECF22
:10169000CD59DF4F0FB6F894DEBF0FBECDBFDF913F
:1016A000CF911F910F91FF90EF90DF90CF90BF905F
:1016B000AF909F908F907F906F905F90089561158D
:1016C000710579F0FB0101900020E9F73197AF0136
:1016D000461B570BDC01ED91FC910280F381E02D5C
:1016E000099480E090E008951F920F920FB60F9238
:1016F00011242F933F934F935F936F937F938F9317
:101700009F93AF93BF93EF93FF938AE992E00E9478
:101710003607FF91EF91BF91AF919F918F917F918C
:101720006F915F914F913F912F910F900FBE0F904E
:101730001F9018951F920F920FB60F9211242F939E
:101740008F939F93EF93FF93E091AA02F091AB02E6
:101750008081E091B002F091B10282FD12C09081CF
:101760008091B3028F5F8F732091B402821751F082
:10177000E091B302F0E0E656FD4F958F8093B302FF
:1017800001C08081FF91EF919F918F912F910F90D8
:101790000FBE0F901F90189590E0FC01E75CFB4F87
:1017A0003491FC01EB5DFB4F2491FC01EF5EFB4F9C
:1017B000E491EE2309F43BC0332339F1333091F047
:1017C00038F43130A9F0323001F584B58F7D12C084
:1017D000373091F03830A1F03430B9F48091800086
:1017E0008F7D03C0809180008F77809380000DC033
:1017F00084B58F7784BD09C08091B0008F7703C016
:101800008091B0008F7D8093B000F0E0EE0FFF1F5D
:10181000E95FFB4FA591B4918FB7F894EC916111FA
:1018200003C020952E2301C02E2B2C938FBF08952B
:10183000CF93DF9390E0FC01EB5DFB4F2491FC0123
:10184000EF5EFB4F8491882361F190E0880F991F30
:10185000FC01E350FC4FC591D491FC01E95FFB4FC3
:10186000A591B491611109C09FB7F8948881209522
:1018700082238883EC912E230BC0623061F49FB7E2
:10188000F8943881822F809583238883EC912E2BC6
:101890002C939FBF06C08FB7F894E8812E2B288326
:1018A0008FBFDF91CF9108958F929F92AF92BF9299
:1018B000CF92DF92EF92FF926B017C010E94EB07C7
:1018C0004B015C01C114D104E104F104F1F00E9468
:1018D000EB07DC01CB0188199909AA09BB09883EED
:1018E0009340A105B10570F321E0C21AD108E108C7
:1018F000F10888EE880E83E0981EA11CB11CC1146B
:10190000D104E104F10419F7DDCFFF90EF90DF90EF
:10191000CF90BF90AF909F908F9008951F920F929D
:101920000FB60F9211242F933F938F939F93AF93F2
:10193000BF938091340490913504A0913604B09106
:1019400037043091330423E0230F2D3720F4019620
:10195000A11DB11D05C026E8230F0296A11DB11DD2
:10196000209333048093340490933504A093360479
:10197000B09337048091380490913904A0913A04CF
:10198000B0913B040196A11DB11D80933804909342
:101990003904A0933A04B0933B04BF91AF919F9157
:1019A0008F913F912F910F900FBE0F901F90189520
:1019B000862F5F982B9A2D989CB59F7B9CBD2D9A66
:1019C0009CB590649CBD0E9444055F9A0895CF9396
:1019D000DF931F92CDB7DEB7872F5F982B9A2D9894
:1019E0009CB59F7B9CBD2D9A9CB590649CBD6983E2
:1019F0000E9444052B9A2D989CB59F7B9CBD2D9AE7
:101A00009CB590649CBD6981862F0E9444055F9AB5
:101A10000F90DF91CF910895862F5F982B982D9886
:101A20009CB59F7B9CBD2D9A9CB590649CBD0E94EB
:101A300044055F9A08956CE20E940C0D5F9808952A
:101A4000CF93DF93CDB7DEB7C154D1090FB6F89469
:101A5000DEBF0FBECDBF789484B5826084BD84B5EF
:101A6000816084BD85B5826085BD85B5816085BD99
:101A700080916E00816080936E0010928100809151
:101A800081008260809381008091810081608093D9
:101A90008100809180008160809380008091B100FE
:101AA00084608093B1008091B00081608093B00029
:101AB00080917A00846080937A0080917A008260BD
:101AC00080937A0080917A00816080937A0080917F
:101AD0007A00806880937A001092C10010921C02F4
:101AE00010921B02109285021092840210926302DF
:101AF00081E08093620210923D0261E082E10E94E7
:101B0000CC0B61E083E10E94CC0B8091B9008E7F09
:101B10008093B9008091B9008D7F8093B90088E4EB
:101B20008093B80085E48093BC0060EF85E50E9457
:101B3000B8086BEF80E00E94B8082FEF71EE84E0E8
:101B4000215070408040E1F700C000000E9425094C
:101B50000E94250980918B0290918C0290939602AD
:101B60008093950280918D0290918E0290939802BD
:101B70008093970261E088E00E94180C289861E049
:101B800089E00E94180C61E087E00E94180C61E077
:101B90008DE00E94180C61E08BE00E94180C60E060
:101BA0008CE00E94180C29985F9A61E086E00E9400
:101BB000180C5E9A109232048CB5837F8CBD8CB564
:101BC0008F7D8CBD1FB7F8948091D301811127C000
:101BD000EBE1F4E08491EFE2F4E09491E82FF0E09F
:101BE000EE0FFF1FE350FC4FA591B491EC91E92358
:101BF00021F461E08AE00E94CC0B61E08AE00E945F
:101C0000180C8CB580618CBD8CB580648CBD61E096
:101C10008DE00E94180C61E08BE00E94180C80910E
:101C2000D3018F5F8093D3011FBF8CB58C7F816000
:101C30008CBD8DB581608DBD5F9A289862E370E0A0
:101C400080E090E00E94540C289A68E770E080E001
:101C500090E00E94540CE8E6F0E07F019FEFE91A63
:101C6000F90A64916F3FB1F1862F807C8038B9F01A
:101C7000803C49F1803411F0F701EFCF162F1F732C
:101C80006F01B12EFFEFCF1ADF0ABB20C9F0F601BA
:101C9000649182EF93E00E940C0DBA94F3CF162F5B
:101CA0001F736F01B12EFFEFCF1ADF0ABB2041F087
:101CB000F601649182EF93E00E94D80CBA94F3CFBE
:101CC000E10EF11CD9CF6F7370E080E090E00E94CC
:101CD000540CD2CF60E070E082EF93E00E944B059D
:101CE0008CB58C7F8CBD8DB58E7F8DBD61E089E01C
:101CF0000E94180CE2E4F4E0E491E33019F150F4AE
:101D0000E130D1F0E230E1F584B5806284BD8FE747
:101D100088BD3AC0E73011F1E83049F1E43081F58F
:101D2000809180008062809380008FE790E09093A4
:101D30008B0080938A0028C084B5806884BD8FE7BB
:101D400087BD22C0809180008068809380008FE7EB
:101D500090E0909389008093880016C08091B00035
:101D600080688093B0008FE78093B3000DC08091AE
:101D7000B00080628093B0008FE78093B40004C00D
:101D800060E089E00E94CC0B8091F4039091F50310
:101D90009C838B838091F6039091F7039E838D83C0
:101DA0008091F8039091F90398878F838091FA03CB
:101DB0009091FB039A8789878091FC039091FD03A2
:101DC0009C878B878091FE039091FF039E878D8770
:101DD0008091000490910104988B8F878091020478
:101DE000909103049A8B898B80910404909105044F
:101DF0009C8B8B8B80910604909107049E8B8D8B1E
:101E00008091080490910904988F8F8B8CE1EAE00F
:101E1000F4E0DE01599601900D928A95E1F78091E8
:101E200026048DAB809127048EAB8091280490917D
:101E3000290498AF8FAB80912A0490912B049AAF1C
:101E400089AF80912C0490912D049CAF8BAF809131
:101E50002E0490912F049EAF8DAF8091300490910D
:101E6000310421969FAF8EAF219785EA91E09A8346
:101E700089838091320422968FAF2297CE010196FA
:101E80000E942B0A8091E8039091E7039093ED0361
:101E90008093EE031092EF031092F00383E080939F
:101EA000F1038BE0F82E98E1E92E0E942509182F06
:101EB0002091ED038091EE03482F50E09FEF920FA9
:101EC000FA01F99EE00DF11D1124ED5BFC4FD0806D
:101ED00091E0920FF99E400D511D1124FA01ED5B26
:101EE000FC4FC0809FEF980FF29E90011124F901E2
:101EF000E90FF11DED5BFC4FA0808F5F280F311DB6
:101F0000F901ED5BFC4FB08067EB71E08AE992E08C
:101F10000E945F0B6BEC71E08AE992E00E945F0B1C
:101F20003091ED033093E9034091EE034093EA03CF
:101F30009091EF03992319F081E0830F01C0832F63
:101F40008093EB032091F003222319F081E0840FAA
:101F500001C0842F8093EC03123009F455C018F4AB
:101F60001130E1F1BBC0133019F01430B9F0B6C034
:101F70009111B4C021110EC08FEF8A0D823008F488
:101F8000ADC041504093EE038091F1032E2D281BEC
:101F9000822F0FC08091F103281B1DC091119EC09C
:101FA00021110AC08FEF8B0D823008F497C0809109
:101FB000F1038093F00348C03091F103832F90E048
:101FC000820F911D489731F44F5F4093EE031092BA
:101FD000F0033AC0230F2093F00336C021117EC0D6
:101FE00091110EC08FEF8D0D823008F477C0315003
:101FF0003093ED038091F1037E2D781B872F0FC066
:102000008091F103981B1EC0211168C091110AC074
:102010008FEF8C0D823008F461C08091F1038093C2
:10202000EF0312C08091F103482F50E0490F511D7A
:102030004831510531F43F5F3093ED031092EF03C7
:1020400003C0980F9093EF036EEC71E08AE992E081
:102050000E945F0B6BEC71E08AE992E00E945F0BDB
:102060008091E9036091EA039091EB03981708F4DB
:1020700042C048E150E09091EC039617C8F520E388
:1020800030E07091ED039091EE03C090EF03D12CFE
:10209000E8E17E9FC00CD11C1124F0E3CF0ED11CCF
:1020A000A090F003B12C78E1979FA00CB11C1124F3
:1020B0009DE0A90EB11C70E0635F7F4F90E004E4E7
:1020C00019E2C0960E94360800E018EF28E130E0DF
:1020D00048E150E0B501C6010E943608EFEFF1EE8D
:1020E00024E0E150F0402040E1F700C00000DDCEE8
:1020F00028E130E0C6CF40E350E0BDCFEAE9F2E0AE
:102100001382128288EE93E0A0E0B0E0848395838E
:10211000A683B78327E631E03183208325EC30E0C6
:102120003587248724EC30E03787268720EC30E0A1
:10213000318B208B21EC30E0338B228B22EC30E092
:10214000358B248B26EC30E0378B268B118E128E4C
:10215000138E148EE7E3F3E0138212828483958357
:10216000A683B78387E791E091838083E2EFF3E072
:102170001382128215821482A0E4B1E0B783A68391
:1021800060EF70E071876087178616861586148663
:1021900013861286178A168A158A148A138A128A57
:1021A000118A108A10AA11AA12AA13AA81E084AB7C
:1021B00085AB17AA16AA4FEF5FEF51AF40AF109251
:1021C00031041092300415AE14AE13AE12AE25EAEF
:1021D00031E0318320831092A9031092A80310925A
:1021E000AB031092AA03B093AD03A093AC0370931A
:1021F000AF036093AE031092B5031092B403109234
:10220000B3031092B2031092B1031092B003109274
:10221000BD031092BC031092BB031092BA0310923C
:10222000B9031092B8031092B7031092B60310923C
:10223000D6031092D7031092D8031092D90380933B
:10224000DA038093DB031092DD031092DC035093DA
:10225000DF034093DE031092E5031092E403109233
:10226000E3031092E2031092E1031092E003309333
:10227000A7032093A60308950E945611332312F456
:102280008A1B9B0B0C9446110E945611B7FF0895B0
:10229000821B930B0895EE0FFF1F0590F491E02D24
:1022A000099481E090E0F8940C946511A29FB0012C
:1022B000B39FC001A39F700D811D1124911DB29F7A
:0E22C000700D811D1124911D0895F894FFCF1B
:1022CE0003000202000000000000000001020100F5
:1022DE0001000100010002000000000000000000EB
:1022EE0000000100010001000100010000000000DB
:1022FE0000020000000000000100010001000100CA
:10230E0001000000000000000000020002000100B9
:10231E0001000100010001000000000000000000AB
:10232E00020004000000005707C0072A0708071C18
:10233E00079E07000000007904490441042D041E85
:10234E00041D04000000005202C0071208120812F9
:10235E000812081208D002BE02000000001208C0C7
:10236E0007000000005202C007D704A8041B0D147A
:10237E00081008D002BE02757064617465506C61FD
:10238E0079657220706C61796572000D0A0049469C
:02239E0000003D
:00000001FF
