:100000000C9428020C9450020C9450020C94500250
:100010000C9450020C9450020C9450020C94500218
:100020000C9450020C9450020C9450020C94500208
:100030000C9450020C9450020C9450020C945002F8
:100040000C943C080C9450020C9450020C945002F6
:100050000C9450020C9450020C9450020C945002D8
:100060000C9411040C9450024128D441CF83008396
:100070003041ED846403128141E88385017941CBED
:1000800085392C00340241F7812041EA8200004189
:10009000C0812641C1811141C582353E41C781BE23
:1000A00041B182001B41F281084126810141E08F6C
:1000B0001F1A180A0F064587320A07020705004172
:1000C000E18F0025270510093A784D05180D383ABB
:1000D0001F41B6840A82270041B78107413A815502
:1000E000413681E8412A82000082013F412B820093
:1000F000008200EF4111FCFC4129D4FFFF00000009
:10010000000000000030787830300030006C6C6CFB
:1001100000000000006C6CFE6CFE6C6C00307CC05B
:10012000780CF8300000C6CC183066C600386C3841
:1001300076DCCC76006060C0000000000018306003
:100140006060301800603018181830600000663C9D
:10015000FF3C660000003030FC3030000000000042
:100160000000703060000000FC0000000000000093
:100170000000303000060C183060C0800078CCDC05
:10018000FCECCC780030F030303030FC0078CC0C17
:100190003860CCFC0078CC0C380CCC78001C3C6C63
:1001A000CCFE0C0C00FCC0F80C0CCC78003860C005
:1001B000F8CCCC7800FCCC0C183060600078CCCC4B
:1001C00078CCCC780078CCCC7C0C18700000003057
:1001D0003000303000000030300070306018306087
:1001E000C0603018000000FC00FC00000060301807
:1001F0000C1830600078CC0C18300030007CC6DE63
:10020000DEDEC078003078CCCCFCCCCC00FC66665E
:100210007C6666FC003C66C0C0C0663C00FC6C6648
:1002200066666CFC00FE6268786862FE00FE6268CA
:10023000786860F0003C66C0C0CE663E00CCCCCC96
:10024000FCCCCCCC0078303030303078001E0C0C38
:100250000CCCCC7800E6666C786C66E600F06060EA
:10026000606266FE00C6EEFED6C6C6C600C6E6F6EC
:10027000DECEC6C600386CC6C6C66C3800FC6666E4
:100280007C6060F00078CCCCCCDC781C00FC66662E
:100290007C786CE60078CCE0381CCC7800FCB4307C
:1002A0003030307800CCCCCCCCCCCCFC00CCCCCC1E
:1002B000CCCC783000C6C6C6D6FEEEC600C6C66C2C
:1002C000386CC6C600CCCCCC7830307800FECC98E8
:1002D0003062C6FE007860606060607800C06030A8
:1002E000180C060200781818181818780010386CC6
:1002F000C60000000000000000000000FF303018C1
:1003000000000000000000780C7CCC7600E0607CEF
:10031000666666BC00000078CCC0CC78001C0C0C73
:100320007CCCCC7600000078CCFCC07800386C60C7
:10033000F06060F000000076CCCC7C0CF8E0606CE3
:10034000766666E60030007030303078001800784D
:10035000181818D870E060666C786CE60070303061
:1003600030303078000000ECFED6C6C6000000F841
:10037000CCCCCCCC00000078CCCCCC78000000DC1D
:1003800066667C60F0000076CCCC7C0C1E0000D849
:100390006C6C60F00000007CC0780CF80010307CC1
:1003A00030303418000000CCCCCCCC76000000CC2F
:1003B000CCCC7830000000C6C6D6FE6C000000C66B
:1003C0006C386CC6000000CCCCCC7C0CF80000FC77
:1003D000983064FC001C3030E030301C00181818D5
:1003E0000018181800E030301C3030E00076DC00D7
:1003F000000000000010386CC6C6C6FE00000000F9
:1004000000240027002A0000000000250028002BFF
:1004100000040404040404040402020202020203AD
:1004200003030303030102040810204080010204B7
:10043000081020010204081020000000080002013A
:100440000000030407000000000000000000700A24
:1004500011241FBECFEFD8E0DEBFCDBF11E0A0E07A
:10046000B1E0ECEDFFE102C005900D92A039B107BB
:10047000D9F722E0A0E9B1E001C01D92A936B20788
:10048000E1F712E0C8E2D2E004C02197FE010E9429
:10049000A50EC732D107C9F70E94810A0C94EC0F50
:1004A0000C9400008F929F92AF92BF92CF92DF92F6
:1004B000EF92FF920F931F93CF93DF93EC016901AB
:1004C00058012E813F81621773071CF0B9016150FA
:1004D000710988859985481759071CF0AC0141506E
:1004E0005109FB01EC0DFD1DE217F3071CF069013A
:1004F000C61AD70A9A012A0D3B1D281739071CF086
:100500005C01A41AB50AE881F9818A010A0D1B1D54
:10051000015011099B012C0D3D1D21503109068010
:10052000F781E02DCE010995E881F9810084F185FC
:10053000E02DCE0109959501D6010E94960E4B0142
:100540005C01E881F98181149104A104B10461F096
:100550000284F385E02DB701CE01099581E0881A68
:100560009108A108B108EDCF0484F585E02DCE01F6
:10057000DF91CF911F910F91FF90EF90DF90CF907F
:10058000BF90AF909F908F9009948F929F92AF925F
:10059000BF92EF92FF920F931F93CF93DF93EC01E3
:1005A0007B01E881F98108851985015011092E81A7
:1005B0003F81215031090680F781E02D40E050E075
:1005C00060E070E00995E881F9810084F185E02D13
:1005D000CE010995AE81BF81288539850E94960E8E
:1005E0004B015C0183E0B694A794979487948A9515
:1005F000D1F7E881F98181149104A104B10409F4CF
:1006000044C00284F385E02DB701CE010995E8814D
:10061000F9810284F385E02DB701CE010995E881C7
:10062000F9810284F385E02DB701CE010995E881B7
:10063000F9810284F385E02DB701CE010995E881A7
:10064000F9810284F385E02DB701CE010995E88197
:10065000F9810284F385E02DB701CE010995E88187
:10066000F9810284F385E02DB701CE010995E88177
:10067000F9810284F385E02DB701CE01099581E06F
:10068000881A9108A108B108B4CF0484F585E02D3B
:10069000CE01DF91CF911F910F91FF90EF90BF900E
:1006A000AF909F908F90099485ED8093BC008091CE
:1006B000BC0084FDFCCF10922C0208954091BE0135
:1006C000262F30E0240F311D21323105DCF420913A
:1006D0002C022430C9F4FC0180E090E0861758F425
:1006E0003091BE012191DC01A456BE4FA30FB11D74
:1006F0002C930196F3CF8091BE01680F6093BE01E9
:1007000080E0089581E0089582E008950895E091E1
:100710004D0280914E02E81730F4F0E0E35DFD4FAA
:10072000808190E008958FEF9FEF089590914D02A2
:1007300080914E02981750F4E92FF0E0E35DFD4FF1
:10074000208130E09F5F90934D0202C02FEF3FEF7A
:10075000C901089580914E0290E020914D02821BC4
:1007600091090895CF92DF92EF92FF920F931F931A
:10077000CF93DF937C01262F972F8A018091E3018D
:10078000882391F0C62FD72F6E01C40ED51ECC152D
:10079000DD0571F06991D701ED91FC910190F08137
:1007A000E02DC7010995F3CF642F822F0E945E03CD
:1007B000C801DF91CF911F910F91FF90EF90DF90D3
:1007C000CF900895CF93DF931F92CDB7DEB76983A3
:1007D0002091E3012223D1F020910502203240F044
:1007E00021E030E0FC013383228380E090E015C0FB
:1007F0008091E401E82FF0E0EB51FE4F9981908366
:100800008F5F8093E4018093050205C061E0CE0113
:1008100001960E945E0381E090E00F90DF91CF91FE
:1008200008951F920F920FB60F9211242F933F93AA
:100830004F935F936F937F938F939F93AF93BF93E8
:10084000EF93FF938091B900887F803609F49CC0B4
:1008500068F5883209F45BC090F4803109F454C023
:1008600038F4882309F4F6C0883009F44DC0F6C086
:10087000883109F44CC0803209F45DC0EFC0803487
:1008800009F468C048F4803309F455C0883309F08E
:10089000E5C080932A02D8C0803509F44FC088355E
:1008A00009F45DC0883409F0D9C0D6C0883909F48C
:1008B000C7C0A8F4883709F467C038F4883609F44B
:1008C00063C0803709F460C0C9C0883809F4B8C073
:1008D000803909F45FC0803809F0C0C05BC0803B3C
:1008E00009F486C038F4803A09F466C0883A09F4FD
:1008F0007FC0B4C0803C09F4A7C0883C09F4A4C000
:10090000883B09F48AC0AAC08091270210C0909148
:10091000290280912802981770F5E091290281E060
:100920008E0F80932902F0E0EA5FFD4F8081809373
:10093000BB0085EC86C080932A028EC0E09129021C
:1009400081E08E0F809329028091BB00F0E0EA5F86
:10095000FD4F808390912902809128026EC0E09122
:10096000290281E08E0F809329028091BB00F0E084
:10097000EA5FFD4F808380912B0281116DC081E081
:100980008093260284EA61C083E080932C02109257
:10099000E201CFCF8091E201803208F051C0E091B6
:1009A000E20181E08E0F8093E2018091BB00F0E0D4
:1009B000EE53FE4F8083BDCF85EC8093BC00109238
:1009C0002C028091E201803230F4E091E201F0E00B
:1009D000EE53FE4F10826091E20170E0E091C001A1
:1009E000F091C10182EC91E009951092E20136C0CC
:1009F00084E080932C021092BF011092BE01E0911E
:100A0000BC01F091BD0109958091BE01811105C025
:100A100081E08093BE0110929C01E091BF0181E0D2
:100A20008E0F8093BF01F0E0E456FE4F80818093EB
:100A3000BB009091BF018091BE01981708F479CF57
:100A400085E88093BC000AC085EC8093BC001092BE
:100A50002C0204C010922A020E945403FF91EF91CD
:100A6000BF91AF919F918F917F916F915F914F91C6
:100A70003F912F910F900FBE0F901F901895CF921E
:100A8000DF92EF92FF920F931F93CF93DF936C014E
:100A90007A018B01C0E0D0E0CE15DF0589F0D801E6
:100AA0006D918D01D601ED91FC910190F081E02DC9
:100AB000C6010995892B11F47E0102C02196ECCF65
:100AC000C701DF91CF911F910F91FF90EF90DF90C1
:100AD000CF9008953FB7F89480916102909162029F
:100AE000A0916302B091640226B5A89B05C02F3F78
:100AF00019F00196A11DB11D3FBFBA2FA92F982F44
:100B00008827820F911DA11DB11DBC01CD0142E0BE
:100B1000660F771F881F991F4A95D1F708955F9A2E
:100B200008958EBD00000DB407FEFDCF8EB508956B
:100B3000CF93DF931F92CDB7DEB7872F5F982B9AA5
:100B40002D989CB59F7B9CBD2D9A9CB590649CBDB7
:100B500069830E9491052B9A2D989CB59F7B9CBD23
:100B60002D9A9CB590649CBD6981862F0E94910549
:100B70005F9A0F90DF91CF910895CF93DF931F92EB
:100B8000CDB7DEB7872F2B9A2D989CB59F7B9CBD48
:100B90002D9A9CB590649CBD69830E9491052B9A07
:100BA0002D989CB59F7B9CBD2D9A9CB590649CBD57
:100BB0006981862F0F90DF91CF910C949105CF9290
:100BC000EF92FF920F931F93CF93DF93EC01262FA9
:100BD0006A3081F48EAD9FAD9BAF8AAF2CA92F7781
:100BE0008CAD9DAD38E0239F800D911D11249DAFEC
:100BF0008CAF47C0862F8B7F893009F442C06AAD25
:100C00007BAD203219F461157105D9F1E881F981C4
:100C1000E8ACF9AC0EA91FA94CAD5DAD0088F18917
:100C2000E02DCCA8CE010995BC019BAF8AAF8DA960
:100C3000882339F12CA92F77822F90E048EF4203C7
:100C4000900111244E815F81420F531F46175707B1
:100C5000C4F44EAD5FAD5BAF4AAF43E0880F991F60
:100C60004A95E1F74CAD5DAD840F951F9DAF8CAFFC
:100C700048855985240F351F2817390714F41DAEF0
:100C80001CAE81E090E0DF91CF911F910F91FF901A
:100C9000EF90CF900895CF92EF92FF920F931F9312
:100CA000DC01ED91FC910684F785E02D09951F91FB
:100CB0000F91FF90EF90CF9008952F923F924F9217
:100CC0005F926F927F928F929F92AF92BF92CF92DC
:100CD000DF92EF92FF920F931F93CF93DF9300D099
:100CE0001F92CDB7DEB79B838A83480188E0280234
:100CF00090011124D901A350B0405D01BC2DBF77F4
:100D0000CB2EEA81FB8186819781F1E0FB1708F405
:100D100063C06B0128E0C20ED11C8C159D050CF43C
:100D20006EC0AA81BB811896ED91FC9119979A012A
:100D3000285F3F4FE217F3070CF461C0AA81BB8123
:100D4000ED91FC9111978A01095F1F4F9B01295F6B
:100D50003F4F0680F781E02DCD010995AA81BB8127
:100D6000ED91FC9111970084F185E02DCD0109955D
:100D70008501085F1F4FF5014490FFEFAF1ABF0ACE
:100D800098E0692E712C20E8522EAA81BB81ED914A
:100D9000FC911197852D84210284F385E02D882311
:100DA00019F0B401CD0103C0B7018A819B81099577
:100DB0005694B1E06B1A710841F7A016B106D9F646
:100DC000AA81BB81ED91FC9111970484F585E02DFA
:100DD000CD010995C60176C0B8E0CB9E80011124F3
:100DE0003B01600E711E861597054CF0040F151F10
:100DF000EA81FB81208531852017310714F40196A3
:100E000061C0AA81BB81ED91FC911197015011093C
:100E10000680F781E02D930121503109CD0109951C
:100E2000AA81BB81ED91FC9111970084F185E02DA1
:100E3000CD0109952501B8E04B0E511CF501249018
:100E4000FFEFAF1ABF0A3C2C08E010E080E8D82E74
:100E50008D2D82212C2DA1F0AA81BB81ED91FC91D9
:100E600011970284F385E02DB401CD012983099502
:100E70002981215089F7D6940150110949F710C0F2
:100E8000AA81BB81ED91FC9111970284F385E02D3D
:100E9000B701CD01298309952981215089F7EBCF2D
:100EA0003A943110D1CFA414B50409F0C7CFAA8168
:100EB000BB81ED91FC9111970484F585E02DCD0166
:100EC0000995C3010F900F900F90DF91CF911F9163
:100ED0000F91FF90EF90DF90CF90BF90AF909F90D9
:100EE0008F907F906F905F904F903F902F900895DC
:100EF0000E94D80F90E0FC01E75CFB4F3491FC01AD
:100F0000EB5DFB4F2491FC01EF5EFB4FE491EE2380
:100F100009F43BC0332339F1333091F038F43130E8
:100F2000A9F0323001F584B58F7D12C0373091F0D1
:100F30003830A1F03430B9F4809180008F7D03C047
:100F4000809180008F77809380000DC084B58F776B
:100F500084BD09C08091B0008F7703C08091B0003C
:100F60008F7D8093B000F0E0EE0FFF1FE95FFB4F35
:100F7000A591B4918FB7F894EC91611103C02095BD
:100F80002E2301C02E2B2C938FBF0895CF93DF9378
:100F900090E0FC01EB5DFB4F2491FC01EF5EFB4F09
:100FA0008491882361F190E0880F991FFC01E35040
:100FB000FC4FC591D491FC01E95FFB4FA591B49121
:100FC000611109C09FB7F894888120958223888396
:100FD000EC912E230BC0623061F49FB7F8943881F6
:100FE000822F809583238883EC912E2B2C939FBF97
:100FF00006C08FB7F894E8812E2B28838FBFDF912E
:10100000CF9108958F929F92AF92BF92CF92DF922D
:10101000EF92FF926B017C010E946A054B015C011B
:10102000C114D104E104F104F1F00E946A05DC016D
:10103000CB0188199909AA09BB09883E9340A105EB
:10104000B10570F321E0C21AD108E108F10888EE79
:10105000880E83E0981EA11CB11CC114D104E104C8
:10106000F10419F7DDCFFF90EF90DF90CF90BF90A4
:10107000AF909F908F9008951F920F920FB60F928E
:1010800011242F933F938F939F93AF93BF9380919E
:101090005D0290915E02A0915F02B091600230917A
:1010A0005C0223E0230F2D3720F40196A11DB11D12
:1010B00005C026E8230F0296A11DB11D20935C02F6
:1010C00080935D0290935E02A0935F02B0936002F2
:1010D0008091610290916202A0916302B0916402DA
:1010E0000196A11DB11D8093610290936202A093AD
:1010F0006302B0936402BF91AF919F918F913F9132
:101100002F910F900FBE0F901F901895CF93C62F61
:1011100081E08093E30182E580935B021092E40119
:1011200010920502642F8FE492E00E94E2036C2F7C
:101130008FE492E00E94E20380910502813208F080
:1011400045C090912C029111FCCF92E090932C021B
:1011500091E090932B029FEF90932A021092290224
:1011600080932802A5EEB1E026E032E0F9019E2F3F
:10117000921B981718F49D919193F9CF1092270222
:1011800080912702846A8093270280912602813011
:1011900061F410922602809127028093BB00809117
:1011A000BC0083FDF8CF85EC01C085EE8093BC00C8
:1011B00080912C028230E1F380912A028F3F31F03E
:1011C00080912A02803211F080912A021092E4016B
:1011D000109205021092E3018FE39CE90197F1F769
:1011E00000C00000CF910895CF92DF92FF920F933D
:1011F0001F93CF93DF93CDB7DEB72C970FB6F8943C
:10120000DEBF0FBECDBF8C0180912C028111FCCFBF
:1012100081E080932C0280932B029FEF90932A020F
:101220001092290295E090932802809327028091E2
:101230002702846A8093270280912602813061F41C
:1012400010922602809127028093BB008091BC00FF
:1012500083FDF8CF85EC01C085EE8093BC008091C2
:101260002C028130E1F380912902863018F4F0904D
:10127000290202C036E0F32EA6E0B2E02DE232E011
:10128000F9018E2F821B8F1518F48D918193F9CF60
:1012900010924D02F0924E02CE0101966C018091A7
:1012A0004D02F81649F08FE492E00E949603F60191
:1012B000819391936F01F3CF8981F80180838B81B2
:1012C00081838B859C859C0121703327F1E02F273A
:1012D000F801258396958795F1E08F278170F801B5
:1012E000848340E060E0C8010E948608F801208104
:1012F00030E0828190E0A901481B590B463051052E
:1013000014F082E006C0821B930B069724F081E064
:10131000F801868302C0F8011682F801218130E0CD
:10132000838190E0A901481B590B4630510514F008
:1013300083E006C0821B930B06971CF084E0F80143
:101340008683F80186812C960FB6F894DEBF0FBE17
:10135000CDBFDF91CF911F910F91FF90DF90CF9084
:101360000895862F5F982B9A2D989CB59F7B9CBDE6
:101370002D9A9CB590649CBD0E9491055F9A08953A
:10138000862F5F982B982D989CB59F7B9CBD2D9A9E
:101390009CB590649CBD0E9491055F9A08956CE293
:1013A0000E94C0095F980895AF92BF92CF92DF92DA
:1013B000EF92FF920F931F93CF93DF93EC015B01AA
:1013C0007A0169016AE20E94C009B501CE010E945A
:1013D0009805B601CE010E9498056BE2CE010E94ED
:1013E000C009B701CE010E949805B801CE01DF9176
:1013F000CF911F910F91FF90EF90DF90CF90BF9012
:10140000AF900C9498050F931F93CF93DF93EC014B
:101410006930710519F06A35710571F48AE590E05B
:101420009D838C8380EF90E09F838E8380E491E0A6
:101430009987888718E434C06231710519F0643BDC
:10144000710571F484EB90E09D838C8380E491E0DE
:101450009F838E8380EF90E09987888718E320C070
:101460006B31710521F07E7F6E30710571F48EE075
:1014700091E09D838C8380EF90E09F838E8380E456
:1014800091E09987888718E80BC01D821C8280E450
:1014900091E09F838E8380EF90E09987888718EE94
:1014A00066E3CE010E94C009612FCE010E94B109FE
:1014B000E881F98108851985015011092E813F8144
:1014C000215031090680F781E02D40E050E060E0D6
:1014D00070E0CE010995DF91CF911F910F91089592
:1014E000EFE4F2E01382128288EE93E0A0E0B0E035
:1014F00084839583A683B78383E891E09183808377
:101500000895CF93DF9300D01F92CDB7DEB77894C4
:1015100084B5826084BD84B5816084BD85B58260F8
:1015200085BD85B5816085BD80916E0081608093A9
:101530006E00109281008091810082608093810012
:101540008091810081608093810080918000816022
:10155000809380008091B10084608093B10080917D
:10156000B00081608093B00080917A0084608093A5
:101570007A0080917A00826080937A0080917A006C
:10158000816080937A0080917A00806880937A00ED
:101590001092C10083E690E00E94AB0E20E030E0A4
:1015A000D901A050BF4F40E050E06D91FA01E20F29
:1015B000F31FE80FF91F60834F5F5F4F4B305105FA
:1015C000A1F7255F3F4F2336310551F790939B01DB
:1015D00080939A0181E490E00E94AB0E3C01DC0113
:1015E00013961C921E92129715961C921E92149797
:1015F00080E491E017969C938E93169780EF90E08D
:1016000019969C938E9318971F961C921E921E9764
:101610001D961C921E921C971B961C921E921A9746
:1016200057961C921E92569755961C921E9254974E
:1016300053961C921E92529751961C921E9250974E
:10164000F30110AA11AA12AA13AA81E084AB85ABF8
:1016500017AA16AA8FEF9FEF91AF80AF17AE16AE05
:1016600015AE14AE13AE12AE8DE691E09183808379
:10167000709299016092980161E088E00E94C6072B
:10168000289861E089E00E94C60761E087E00E9437
:10169000C60761E08DE00E94C60761E08BE00E9412
:1016A000C60760E08CE00E94C60729985F9A61E057
:1016B00086E00E94C6075E9AF301E05CFF4F10824D
:1016C0008CB5837F8CBD8CB58F7D8CBD1FB7F89496
:1016D00080919101811127C0EBE1F4E08491EFE268
:1016E000F4E09491E82FF0E0EE0FFF1FE350FC4F81
:1016F000A591B491EC91E92321F461E08AE00E9484
:101700007A0761E08AE00E94C6078CB580618CBDD3
:101710008CB580648CBD61E08DE00E94C60761E0FD
:101720008BE00E94C607809191018F5F80939101A9
:101730001FBF8CB58C7F81608CBD8DB581608DBDE8
:101740005F9A289862E370E080E090E00E940208CF
:10175000289A68E770E080E090E00E940208E8E6DE
:10176000F0E06F012FEFC21AD20A64916F3FA1F12E
:10177000862F807C8038B1F0803C39F1803411F0C4
:10178000F601EFCF162F1F735F01912EFFEFAF1AF7
:10179000BF0A9920B9F0F5016491C3010E94C00904
:1017A0009A94F4CF162F1F735F01912EFFEFAF1A9B
:1017B000BF0A992039F0F5016491C3010E94B10973
:1017C0009A94F4CFC10ED11CDBCF6F7370E080E030
:1017D00090E00E940208D4CF60E070E0C3010E9454
:1017E000C5028CB58C7F8CBD8DB58E7F8DBD61E0C3
:1017F00089E00E94C607E2E4F4E0E491E33019F1E5
:1018000050F4E130D1F0E230E1F584B5806284BD7E
:101810008FE788BD3AC0E73011F1E83049F1E43094
:1018200081F5809180008062809380008FE790E056
:1018300090938B0080938A0028C084B5806884BD13
:101840008FE787BD22C080918000806880938000F0
:101850008FE790E0909389008093880016C0809174
:10186000B00080688093B0008FE78093B3000DC014
:101870008091B00080628093B0008FE78093B400C5
:1018800004C060E089E00E947A0787E090E00E944F
:10189000AB0E4C01DC0116961C9210924D02109278
:1018A0004E021092E4011092050210922C0281E087
:1018B00080932B021092260261E082E10E947A0757
:1018C00061E083E10E947A078091B9008E7F809366
:1018D000B9008091B9008D7F8093B90088E480932E
:1018E000B80085E48093BC0040EF65E5C4010E9428
:1018F00086084BEF60E0C4010E948608BFEFE1EE6E
:10190000F4E0B150E040F040E1F700C00000C40155
:101910000E94F408C4010E94F408D4018C9112962C
:101920008C93129711968C91119713968C93909299
:101930009701809296018DE090E00E94AB0E6C01C1
:10194000A0909A01B0909B01FC0191828082B382A9
:10195000A282909395018093940186E090E00E948A
:10196000AB0E9B838A838091980190919901AA8103
:10197000BB8111969C938E931396BC92AE92129754
:101980001596DC92CE9214976DEC74EA0E94C50213
:10199000F4E4EF2EF9E2FF2E08ED10E028E031E04C
:1019A0004DE050E060E370E0EA81FB81808191814D
:1019B0000E945202612C712CADE0AA2EB12C6982DA
:1019C000812C912C40E3C42ED12CABE0A69D1001BC
:1019D000A79D300C1124AA81BB811296ED91FC9138
:1019E00013972101480C591CE40DF51D80818230AC
:1019F00041F190F4813009F05DC0EDECEE2EE4EAA7
:101A0000FE2E08E110E028E130E0A501B601EA81F0
:101A1000FB818081918123C0833021F1843009F0E2
:101A200049C0E12C58EFF52E08E110E028E130E044
:101A3000A501B601EA81FB81808191810E94520259
:101A40002FC07DE6E72E7BEAF72E08E110E028E1C3
:101A500030E0A501B601AA81BB818D919C910E94C5
:101A6000520228C0E12C68EFF62E08E110E028E1D0
:101A700030E0A501B601EA81FB81808191810E945D
:101A80005202AA81BB811496ED91FC911597848234
:101A9000B981B583808681861682178224E02487E7
:101AA000AA81BB8112968D919C911397FC01E40D44
:101AB000F51D1082B8E1CB0ED11CEFEF8E1A9E0AF5
:101AC000F8E3CF16F1E0DF0609F085CF28E1A20E9A
:101AD000B11C8FEF681A780A95EEA916B10409F0C7
:101AE0006ECFEA81FB81F0939301E09392012BE0AA
:101AF000B22E38E1A32E80919601909197010E9419
:101B0000F408E0919401F0919501A081B1811696BD
:101B10008C91823089F118F4813041F0ECCF833020
:101B200009F453C0843009F47AC0E5CF878181116C
:101B3000E2CF868181111DC0858124819FEF920FA4
:101B4000428153818930B9F29B30A9F2B89ED0010D
:101B50001124A90FB11DA40FB51F8C9181508230A3
:101B600050F2222341F2948384852A2D281B822F50
:101B700081C09485891B7EC087818111BCCF9681ED
:101B8000911119C0858194819F5F228133818930B1
:101B900009F4B1CF9B3009F4AECFB89ED001112427
:101BA000A90FB11DA20FB31F8C918150823008F490
:101BB000A2CF84855FC08485890F883108F45AC01C
:101BC000168284818F5F848356C08681811193CF72
:101BD0008781811121C025818FEF820F94814281FD
:101BE0005381893009F487CF9B3009F484CFB89EA4
:101BF000D0011124A90FB11DA40FB51F9C919150C4
:101C0000923008F478CF222309F475CF8583848538
:101C10009A2D981B892F27C09485891B24C0868103
:101C2000811169CF978191111AC0A58181E08A0F36
:101C3000948122813381893009F45DCF9B3009F48E
:101C40005ACFB89ED0011124A90FB11DA20FB31F06
:101C50008C918150823008F44ECF848504C08485F5
:101C6000890F883110F4878306C0178285818F5FC2
:101C7000858301C08683C0909201D0909301D601E4
:101C80001496ED91FC91159791858085438550E0E0
:101C9000B8E19B9F400D511D1124435F5F4F62854A
:101CA00070E0E8E18E9F600D711D1124605D7F4F33
:101CB00084E4E82E89E2F82E08E110E028E130E023
:101CC000D6018D919C910E945202D6011496ED91FD
:101CD000FC911597958147818481668150E0B8E138
:101CE0009B9F400D511D1124435F5F4F70E0E8E161
:101CF0008E9F600D711D1124605D7F4FE12C98EF68
:101D0000F92E28E130E0D6018D919C910E9452027B
:101D1000D6011496ED91FC91159784818087858179
:101D200081878681828787818387E5CE0E94DD0F48
:101D3000332312F48A1B9B0B0C94A00E0E94DD0F20
:101D4000B7FF0895821B930B0895EE0FFF1F0590B8
:101D5000F491E02D0994CF93DF938230910510F434
:101D600082E090E0E0916702F091680220E030E0CC
:101D7000C0E0D0E0309711F14081518148175907F8
:101D8000C0F04817590761F482819381209719F0B8
:101D90009B838A832BC0909368028093670226C03E
:101DA0002115310519F04217530718F49A01BE01A5
:101DB000DF01EF010280F381E02DDCCF2115310539
:101DC00009F1281B390B2430310590F412968D91BE
:101DD0009C9113976115710521F0FB019383828318
:101DE00004C09093680280936702FD01329644C05C
:101DF000FD01E20FF31F81939193225031092D933E
:101E00003C933AC02091650230916602232B41F445
:101E1000209165013091660130936602209365023E
:101E200020916301309164012115310541F42DB7F2
:101E30003EB74091670150916801241B350BE0913A
:101E40006502F0916602E217F307A0F42E1B3F0B28
:101E50002817390778F0AC014E5F5F4F241735071C
:101E600048F04E0F5F1F50936602409365028193C6
:101E7000919302C0E0E0F0E0CF01DF91CF910895AF
:101E80000F931F93CF93DF93009709F48CC0FC014D
:101E90003297138212820091670210916802011535
:101EA000110581F420813181820F931F20916502F9
:101EB000309166022817390779F5F0936602E093AE
:101EC000650271C0D80140E050E0AE17BF0750F482
:101ED00012962D913C911397AD012115310509F111
:101EE000D901F3CF9D01DA013383228360817181AF
:101EF000860F971F8217930769F4EC0128813981B7
:101F0000260F371F2E5F3F4F318320838A819B81AD
:101F100093838283452B29F4F0936802E093670250
:101F200042C01396FC93EE931297ED01499159919B
:101F30009E01240F351FE217F30771F48081918110
:101F4000840F951F029611969C938E9382819381A4
:101F500013969C938E931297E0E0F0E0D8011296CE
:101F60008D919C911397009719F0F8018C01F6CF91
:101F70008D919C9198012E5F3F4F820F931F20916E
:101F80006502309166022817390769F4309729F401
:101F9000109268021092670202C01382128210939C
:101FA000660200936502DF91CF911F910F91089512
:101FB00081E090E0F8940C94EC0FA29FB001B39FE5
:101FC000C001A39F700D811D1124911DB29F700D42
:0C1FD000811D1124911D0895F894FFCF8D
:101FDC0003000000000000000000000001020100EE
:101FEC0001000100010000000000000000000000E2
:101FFC0000000100010001000100010000000000D0
:10200C0000020000000000000100010001000100BE
:10201C0001000000000000000000020002000100AE
:10202C0001000100010001000000000000000000A0
:10203C0002000400006902800000000000DF053F80
:10204C0005030AD409CF09BD058F055D064B0600B3
:10205C00000000E203B203AA039603870386030081
:00000001FF
